{
  "_format": "hh-sol-artifact-1",
  "contractName": "BattleRoyale",
  "sourceName": "contracts/BattleRoyale.sol",
  "abi": [
    {
      "inputs": [
        {
          "internalType": "address",
          "name": "admin",
          "type": "address"
        }
      ],
      "stateMutability": "nonpayable",
      "type": "constructor"
    },
    {
      "inputs": [],
      "name": "AccessControlBadConfirmation",
      "type": "error"
    },
    {
      "inputs": [
        {
          "internalType": "address",
          "name": "account",
          "type": "address"
        },
        {
          "internalType": "bytes32",
          "name": "neededRole",
          "type": "bytes32"
        }
      ],
      "name": "AccessControlUnauthorizedAccount",
      "type": "error"
    },
    {
      "inputs": [],
      "name": "ReentrancyGuardReentrantCall",
      "type": "error"
    },
    {
      "anonymous": false,
      "inputs": [
        {
          "indexed": false,
          "internalType": "enum BattleRoyale.GameState",
          "name": "newState",
          "type": "uint8"
        }
      ],
      "name": "GameStateChanged",
      "type": "event"
    },
    {
      "anonymous": false,
      "inputs": [
        {
          "indexed": true,
          "internalType": "bytes32",
          "name": "role",
          "type": "bytes32"
        },
        {
          "indexed": true,
          "internalType": "bytes32",
          "name": "previousAdminRole",
          "type": "bytes32"
        },
        {
          "indexed": true,
          "internalType": "bytes32",
          "name": "newAdminRole",
          "type": "bytes32"
        }
      ],
      "name": "RoleAdminChanged",
      "type": "event"
    },
    {
      "anonymous": false,
      "inputs": [
        {
          "indexed": true,
          "internalType": "bytes32",
          "name": "role",
          "type": "bytes32"
        },
        {
          "indexed": true,
          "internalType": "address",
          "name": "account",
          "type": "address"
        },
        {
          "indexed": true,
          "internalType": "address",
          "name": "sender",
          "type": "address"
        }
      ],
      "name": "RoleGranted",
      "type": "event"
    },
    {
      "anonymous": false,
      "inputs": [
        {
          "indexed": true,
          "internalType": "bytes32",
          "name": "role",
          "type": "bytes32"
        },
        {
          "indexed": true,
          "internalType": "address",
          "name": "account",
          "type": "address"
        },
        {
          "indexed": true,
          "internalType": "address",
          "name": "sender",
          "type": "address"
        }
      ],
      "name": "RoleRevoked",
      "type": "event"
    },
    {
      "anonymous": false,
      "inputs": [
        {
          "indexed": false,
          "internalType": "uint256",
          "name": "roundNumber",
          "type": "uint256"
        }
      ],
      "name": "RoundStarted",
      "type": "event"
    },
    {
      "anonymous": false,
      "inputs": [
        {
          "indexed": true,
          "internalType": "address",
          "name": "user",
          "type": "address"
        },
        {
          "indexed": true,
          "internalType": "address",
          "name": "token",
          "type": "address"
        },
        {
          "indexed": false,
          "internalType": "uint256",
          "name": "amount",
          "type": "uint256"
        }
      ],
      "name": "StakePlaced",
      "type": "event"
    },
    {
      "anonymous": false,
      "inputs": [
        {
          "indexed": true,
          "internalType": "address",
          "name": "tokenAddress",
          "type": "address"
        }
      ],
      "name": "TokenEliminated",
      "type": "event"
    },
    {
      "anonymous": false,
      "inputs": [
        {
          "indexed": true,
          "internalType": "address",
          "name": "tokenAddress",
          "type": "address"
        }
      ],
      "name": "TokenRegistered",
      "type": "event"
    },
    {
      "anonymous": false,
      "inputs": [
        {
          "indexed": true,
          "internalType": "address",
          "name": "user",
          "type": "address"
        },
        {
          "indexed": true,
          "internalType": "address",
          "name": "token",
          "type": "address"
        },
        {
          "indexed": false,
          "internalType": "uint256",
          "name": "amount",
          "type": "uint256"
        }
      ],
      "name": "VoteCast",
      "type": "event"
    },
    {
      "inputs": [],
      "name": "DEFAULT_ADMIN_ROLE",
      "outputs": [
        {
          "internalType": "bytes32",
          "name": "",
          "type": "bytes32"
        }
      ],
      "stateMutability": "view",
      "type": "function"
    },
    {
      "inputs": [],
      "name": "MINIMUM_STAKE",
      "outputs": [
        {
          "internalType": "uint256",
          "name": "",
          "type": "uint256"
        }
      ],
      "stateMutability": "view",
      "type": "function"
    },
    {
      "inputs": [],
      "name": "OPERATOR_ROLE",
      "outputs": [
        {
          "internalType": "bytes32",
          "name": "",
          "type": "bytes32"
        }
      ],
      "stateMutability": "view",
      "type": "function"
    },
    {
      "inputs": [],
      "name": "ROUND_DURATION",
      "outputs": [
        {
          "internalType": "uint256",
          "name": "",
          "type": "uint256"
        }
      ],
      "stateMutability": "view",
      "type": "function"
    },
    {
      "inputs": [
        {
          "internalType": "uint256",
          "name": "",
          "type": "uint256"
        }
      ],
      "name": "activeTokens",
      "outputs": [
        {
          "internalType": "address",
          "name": "",
          "type": "address"
        }
      ],
      "stateMutability": "view",
      "type": "function"
    },
    {
      "inputs": [],
      "name": "advanceState",
      "outputs": [],
      "stateMutability": "nonpayable",
      "type": "function"
    },
    {
      "inputs": [],
      "name": "creator",
      "outputs": [
        {
          "internalType": "address",
          "name": "",
          "type": "address"
        }
      ],
      "stateMutability": "view",
      "type": "function"
    },
    {
      "inputs": [],
      "name": "currentRound",
      "outputs": [
        {
          "internalType": "uint256",
          "name": "roundNumber",
          "type": "uint256"
        },
        {
          "internalType": "uint256",
          "name": "startTime",
          "type": "uint256"
        },
        {
          "internalType": "uint256",
          "name": "endTime",
          "type": "uint256"
        },
        {
          "internalType": "uint256",
          "name": "totalStaked",
          "type": "uint256"
        }
      ],
      "stateMutability": "view",
      "type": "function"
    },
    {
      "inputs": [],
      "name": "currentState",
      "outputs": [
        {
          "internalType": "enum BattleRoyale.GameState",
          "name": "",
          "type": "uint8"
        }
      ],
      "stateMutability": "view",
      "type": "function"
    },
    {
      "inputs": [
        {
          "internalType": "address[]",
          "name": "tokensToEliminate",
          "type": "address[]"
        }
      ],
      "name": "eliminateTokens",
      "outputs": [],
      "stateMutability": "nonpayable",
      "type": "function"
    },
    {
      "inputs": [],
      "name": "emergencyWithdraw",
      "outputs": [],
      "stateMutability": "nonpayable",
      "type": "function"
    },
    {
      "inputs": [],
      "name": "getActiveTokens",
      "outputs": [
        {
          "internalType": "address[]",
          "name": "",
          "type": "address[]"
        }
      ],
      "stateMutability": "view",
      "type": "function"
    },
    {
      "inputs": [
        {
          "internalType": "bytes32",
          "name": "role",
          "type": "bytes32"
        }
      ],
      "name": "getRoleAdmin",
      "outputs": [
        {
          "internalType": "bytes32",
          "name": "",
          "type": "bytes32"
        }
      ],
      "stateMutability": "view",
      "type": "function"
    },
    {
      "inputs": [
        {
          "internalType": "bytes32",
          "name": "role",
          "type": "bytes32"
        },
        {
          "internalType": "address",
          "name": "account",
          "type": "address"
        }
      ],
      "name": "grantRole",
      "outputs": [],
      "stateMutability": "nonpayable",
      "type": "function"
    },
    {
      "inputs": [
        {
          "internalType": "bytes32",
          "name": "role",
          "type": "bytes32"
        },
        {
          "internalType": "address",
          "name": "account",
          "type": "address"
        }
      ],
      "name": "hasRole",
      "outputs": [
        {
          "internalType": "bool",
          "name": "",
          "type": "bool"
        }
      ],
      "stateMutability": "view",
      "type": "function"
    },
    {
      "inputs": [
        {
          "internalType": "address",
          "name": "tokenAddr",
          "type": "address"
        }
      ],
      "name": "isTokenAlive",
      "outputs": [
        {
          "internalType": "bool",
          "name": "",
          "type": "bool"
        }
      ],
      "stateMutability": "view",
      "type": "function"
    },
    {
      "inputs": [],
      "name": "memeCoinFactory",
      "outputs": [
        {
          "internalType": "address",
          "name": "",
          "type": "address"
        }
      ],
      "stateMutability": "view",
      "type": "function"
    },
    {
      "inputs": [
        {
          "internalType": "address",
          "name": "tokenAddress",
          "type": "address"
        }
      ],
      "name": "registerToken",
      "outputs": [],
      "stateMutability": "nonpayable",
      "type": "function"
    },
    {
      "inputs": [
        {
          "internalType": "bytes32",
          "name": "role",
          "type": "bytes32"
        },
        {
          "internalType": "address",
          "name": "callerConfirmation",
          "type": "address"
        }
      ],
      "name": "renounceRole",
      "outputs": [],
      "stateMutability": "nonpayable",
      "type": "function"
    },
    {
      "inputs": [
        {
          "internalType": "bytes32",
          "name": "role",
          "type": "bytes32"
        },
        {
          "internalType": "address",
          "name": "account",
          "type": "address"
        }
      ],
      "name": "revokeRole",
      "outputs": [],
      "stateMutability": "nonpayable",
      "type": "function"
    },
    {
      "inputs": [
        {
          "internalType": "address",
          "name": "_memeCoinFactory",
          "type": "address"
        }
      ],
      "name": "setMemeCoinFactory",
      "outputs": [],
      "stateMutability": "nonpayable",
      "type": "function"
    },
    {
      "inputs": [
        {
          "internalType": "address",
          "name": "tokenAddress",
          "type": "address"
        }
      ],
      "name": "stake",
      "outputs": [],
      "stateMutability": "payable",
      "type": "function"
    },
    {
      "inputs": [],
      "name": "startNewRound",
      "outputs": [],
      "stateMutability": "nonpayable",
      "type": "function"
    },
    {
      "inputs": [
        {
          "internalType": "bytes4",
          "name": "interfaceId",
          "type": "bytes4"
        }
      ],
      "name": "supportsInterface",
      "outputs": [
        {
          "internalType": "bool",
          "name": "",
          "type": "bool"
        }
      ],
      "stateMutability": "view",
      "type": "function"
    },
    {
      "inputs": [
        {
          "internalType": "address",
          "name": "",
          "type": "address"
        }
      ],
      "name": "tokens",
      "outputs": [
        {
          "internalType": "address",
          "name": "addr",
          "type": "address"
        },
        {
          "internalType": "bool",
          "name": "isAlive",
          "type": "bool"
        },
        {
          "internalType": "uint256",
          "name": "votesReceived",
          "type": "uint256"
        },
        {
          "internalType": "uint256",
          "name": "totalStaked",
          "type": "uint256"
        },
        {
          "internalType": "uint256",
          "name": "price",
          "type": "uint256"
        }
      ],
      "stateMutability": "view",
      "type": "function"
    },
    {
      "inputs": [
        {
          "internalType": "address",
          "name": "",
          "type": "address"
        },
        {
          "internalType": "address",
          "name": "",
          "type": "address"
        }
      ],
      "name": "userStakes",
      "outputs": [
        {
          "internalType": "uint256",
          "name": "",
          "type": "uint256"
        }
      ],
      "stateMutability": "view",
      "type": "function"
    },
    {
      "inputs": [
        {
          "internalType": "address",
          "name": "",
          "type": "address"
        },
        {
          "internalType": "address",
          "name": "",
          "type": "address"
        }
      ],
      "name": "userVotes",
      "outputs": [
        {
          "internalType": "uint256",
          "name": "",
          "type": "uint256"
        }
      ],
      "stateMutability": "view",
      "type": "function"
    },
    {
      "inputs": [
        {
          "internalType": "address",
          "name": "tokenAddress",
          "type": "address"
        },
        {
          "internalType": "uint256",
          "name": "amount",
          "type": "uint256"
        }
      ],
      "name": "vote",
      "outputs": [],
      "stateMutability": "nonpayable",
      "type": "function"
    }
  ],
  "bytecode": "0x608060405234801561001057600080fd5b50604051612ebc380380612ebc83398181016040528101906100329190610297565b6001808190555061004c6000801b826100c560201b60201c565b5061007d7f97667070c54ef182b0f5858b034beac1b6f3089aa2d3188bb1e8929f4fa9b929826100c560201b60201c565b5033600c60006101000a81548173ffffffffffffffffffffffffffffffffffffffff021916908373ffffffffffffffffffffffffffffffffffffffff160217905550506102c4565b60006100d783836101c260201b60201c565b6101b757600160008085815260200190815260200160002060000160008473ffffffffffffffffffffffffffffffffffffffff1673ffffffffffffffffffffffffffffffffffffffff16815260200190815260200160002060006101000a81548160ff02191690831515021790555061015461022c60201b60201c565b73ffffffffffffffffffffffffffffffffffffffff168273ffffffffffffffffffffffffffffffffffffffff16847f2f8788117e7eff1d82e926ec794901d17c78024a50270940304540a733656f0d60405160405180910390a4600190506101bc565b600090505b92915050565b600080600084815260200190815260200160002060000160008373ffffffffffffffffffffffffffffffffffffffff1673ffffffffffffffffffffffffffffffffffffffff16815260200190815260200160002060009054906101000a900460ff16905092915050565b600033905090565b600080fd5b600073ffffffffffffffffffffffffffffffffffffffff82169050919050565b600061026482610239565b9050919050565b61027481610259565b811461027f57600080fd5b50565b6000815190506102918161026b565b92915050565b6000602082840312156102ad576102ac610234565b5b60006102bb84828501610282565b91505092915050565b612be9806102d36000396000f3fe6080604052600436106101b75760003560e01c806384ecdaf6116100ec578063b30845861161008a578063db2e21bc11610064578063db2e21bc146105ee578063e486033914610605578063f5b541a614610646578063fb7ebb8614610671576101b7565b8063b308458614610585578063bd85948c146105ae578063d547741f146105c5576101b7565b806391d14854116100c657806391d14854146104b75780639f224f35146104f4578063a217fddf14610531578063a5c8c74b1461055c576101b7565b806384ecdaf614610435578063862d2d7c1461044c5780638a19c8bc14610489576101b7565b8063264762041161015957806342ee7cad1161013357806342ee7cad1461038b5780635f5817e3146103b65780635f74bbde146103e15780636641ea081461040a576101b7565b8063264762041461031d5780632f2ff15d1461033957806336568abe14610362576101b7565b806309824a801161019557806309824a801461024f5780630c3f6acf14610278578063186e943f146102a3578063248a9ca3146102e0576101b7565b806301ffc9a7146101bc57806302d05d3f146101f957806308dbbb0314610224575b600080fd5b3480156101c857600080fd5b506101e360048036038101906101de9190612014565b6106ae565b6040516101f0919061205c565b60405180910390f35b34801561020557600080fd5b5061020e610728565b60405161021b91906120b8565b60405180910390f35b34801561023057600080fd5b5061023961074e565b60405161024691906120ec565b60405180910390f35b34801561025b57600080fd5b5061027660048036038101906102719190612133565b610758565b005b34801561028457600080fd5b5061028d610a80565b60405161029a91906121d7565b60405180910390f35b3480156102af57600080fd5b506102ca60048036038101906102c59190612133565b610a93565b6040516102d7919061205c565b60405180910390f35b3480156102ec57600080fd5b5061030760048036038101906103029190612228565b610aec565b6040516103149190612264565b60405180910390f35b61033760048036038101906103329190612133565b610b0b565b005b34801561034557600080fd5b50610360600480360381019061035b919061227f565b610dda565b005b34801561036e57600080fd5b506103896004803603810190610384919061227f565b610dfc565b005b34801561039757600080fd5b506103a0610e77565b6040516103ad91906120b8565b60405180910390f35b3480156103c257600080fd5b506103cb610e9d565b6040516103d8919061237d565b60405180910390f35b3480156103ed57600080fd5b50610408600480360381019061040391906123cb565b610f2b565b005b34801561041657600080fd5b5061041f611256565b60405161042c91906120ec565b60405180910390f35b34801561044157600080fd5b5061044a61125b565b005b34801561045857600080fd5b50610473600480360381019061046e919061240b565b6113b4565b60405161048091906120ec565b60405180910390f35b34801561049557600080fd5b5061049e6113d9565b6040516104ae949392919061244b565b60405180910390f35b3480156104c357600080fd5b506104de60048036038101906104d9919061227f565b6113f7565b6040516104eb919061205c565b60405180910390f35b34801561050057600080fd5b5061051b60048036038101906105169190612490565b611461565b60405161052891906120b8565b60405180910390f35b34801561053d57600080fd5b506105466114a0565b6040516105539190612264565b60405180910390f35b34801561056857600080fd5b50610583600480360381019061057e9190612522565b6114a7565b005b34801561059157600080fd5b506105ac60048036038101906105a79190612133565b611897565b005b3480156105ba57600080fd5b506105c36119fc565b005b3480156105d157600080fd5b506105ec60048036038101906105e7919061227f565b611b84565b005b3480156105fa57600080fd5b50610603611ba6565b005b34801561061157600080fd5b5061062c60048036038101906106279190612133565b611bfd565b60405161063d95949392919061256f565b60405180910390f35b34801561065257600080fd5b5061065b611c60565b6040516106689190612264565b60405180910390f35b34801561067d57600080fd5b506106986004803603810190610693919061240b565b611c84565b6040516106a591906120ec565b60405180910390f35b60007f7965db0b000000000000000000000000000000000000000000000000000000007bffffffffffffffffffffffffffffffffffffffffffffffffffffffff1916827bffffffffffffffffffffffffffffffffffffffffffffffffffffffff19161480610721575061072082611ca9565b5b9050919050565b600c60009054906101000a900473ffffffffffffffffffffffffffffffffffffffff1681565b655af3107a400081565b600d60009054906101000a900473ffffffffffffffffffffffffffffffffffffffff1673ffffffffffffffffffffffffffffffffffffffff163373ffffffffffffffffffffffffffffffffffffffff16146107e8576040517f08c379a00000000000000000000000000000000000000000000000000000000081526004016107df9061261f565b60405180910390fd5b600760008273ffffffffffffffffffffffffffffffffffffffff1673ffffffffffffffffffffffffffffffffffffffff16815260200190815260200160002060000160149054906101000a900460ff1615610878576040517f08c379a000000000000000000000000000000000000000000000000000000000815260040161086f9061268b565b60405180910390fd5b6040518060a001604052808273ffffffffffffffffffffffffffffffffffffffff16815260200160011515815260200160008152602001600081526020016000815250600760008373ffffffffffffffffffffffffffffffffffffffff1673ffffffffffffffffffffffffffffffffffffffff16815260200190815260200160002060008201518160000160006101000a81548173ffffffffffffffffffffffffffffffffffffffff021916908373ffffffffffffffffffffffffffffffffffffffff16021790555060208201518160000160146101000a81548160ff0219169083151502179055506040820151816001015560608201518160020155608082015181600301559050506008819080600181540180825580915050600190039060005260206000200160009091909190916101000a81548173ffffffffffffffffffffffffffffffffffffffff021916908373ffffffffffffffffffffffffffffffffffffffff16021790555060016008805490506109f791906126da565b600960008373ffffffffffffffffffffffffffffffffffffffff1673ffffffffffffffffffffffffffffffffffffffff168152602001908152602001600020819055508073ffffffffffffffffffffffffffffffffffffffff167f158412daecdc1456d01568828bcdb18464cc7f1ce0215ddbc3f3cfede9d1e63d60405160405180910390a250565b600260009054906101000a900460ff1681565b6000600760008373ffffffffffffffffffffffffffffffffffffffff1673ffffffffffffffffffffffffffffffffffffffff16815260200190815260200160002060000160149054906101000a900460ff169050919050565b6000806000838152602001908152602001600020600101549050919050565b610b13611d13565b6001806005811115610b2857610b27612160565b5b600260009054906101000a900460ff166005811115610b4a57610b49612160565b5b14610b8a576040517f08c379a0000000000000000000000000000000000000000000000000000000008152600401610b819061275a565b60405180910390fd5b655af3107a4000341015610bd3576040517f08c379a0000000000000000000000000000000000000000000000000000000008152600401610bca906127c6565b60405180910390fd5b600760008373ffffffffffffffffffffffffffffffffffffffff1673ffffffffffffffffffffffffffffffffffffffff16815260200190815260200160002060000160149054906101000a900460ff16610c62576040517f08c379a0000000000000000000000000000000000000000000000000000000008152600401610c5990612832565b60405180910390fd5b34600a60003373ffffffffffffffffffffffffffffffffffffffff1673ffffffffffffffffffffffffffffffffffffffff16815260200190815260200160002060008473ffffffffffffffffffffffffffffffffffffffff1673ffffffffffffffffffffffffffffffffffffffff1681526020019081526020016000206000828254610cee9190612852565b9250508190555034600760008473ffffffffffffffffffffffffffffffffffffffff1673ffffffffffffffffffffffffffffffffffffffff1681526020019081526020016000206002016000828254610d479190612852565b9250508190555034600380016000828254610d629190612852565b925050819055508173ffffffffffffffffffffffffffffffffffffffff163373ffffffffffffffffffffffffffffffffffffffff167fc6778db798f453f4b58c597af5604e294177401915982bd7c1c018648a3773d734604051610dc691906120ec565b60405180910390a350610dd7611d59565b50565b610de382610aec565b610dec81611d62565b610df68383611d76565b50505050565b610e04611e67565b73ffffffffffffffffffffffffffffffffffffffff168173ffffffffffffffffffffffffffffffffffffffff1614610e68576040517f6697b23200000000000000000000000000000000000000000000000000000000815260040160405180910390fd5b610e728282611e6f565b505050565b600d60009054906101000a900473ffffffffffffffffffffffffffffffffffffffff1681565b60606008805480602002602001604051908101604052809291908181526020018280548015610f2157602002820191906000526020600020905b8160009054906101000a900473ffffffffffffffffffffffffffffffffffffffff1673ffffffffffffffffffffffffffffffffffffffff1681526020019060010190808311610ed7575b5050505050905090565b610f33611d13565b6002806005811115610f4857610f47612160565b5b600260009054906101000a900460ff166005811115610f6a57610f69612160565b5b14610faa576040517f08c379a0000000000000000000000000000000000000000000000000000000008152600401610fa19061275a565b60405180910390fd5b600760008473ffffffffffffffffffffffffffffffffffffffff1673ffffffffffffffffffffffffffffffffffffffff16815260200190815260200160002060000160149054906101000a900460ff16611039576040517f08c379a000000000000000000000000000000000000000000000000000000000815260040161103090612832565b60405180910390fd5b81600a60003373ffffffffffffffffffffffffffffffffffffffff1673ffffffffffffffffffffffffffffffffffffffff16815260200190815260200160002060008573ffffffffffffffffffffffffffffffffffffffff1673ffffffffffffffffffffffffffffffffffffffff1681526020019081526020016000205410156110f8576040517f08c379a00000000000000000000000000000000000000000000000000000000081526004016110ef906128d2565b60405180910390fd5b81600b60003373ffffffffffffffffffffffffffffffffffffffff1673ffffffffffffffffffffffffffffffffffffffff16815260200190815260200160002060008573ffffffffffffffffffffffffffffffffffffffff1673ffffffffffffffffffffffffffffffffffffffff16815260200190815260200160002060008282546111849190612852565b9250508190555081600760008573ffffffffffffffffffffffffffffffffffffffff1673ffffffffffffffffffffffffffffffffffffffff16815260200190815260200160002060010160008282546111dd9190612852565b925050819055508273ffffffffffffffffffffffffffffffffffffffff163373ffffffffffffffffffffffffffffffffffffffff167f484413c33463e7d976e3ded2a85b0c31610d0906977df2cd9cbd6d12a6872a848460405161124191906120ec565b60405180910390a350611252611d59565b5050565b603c81565b7f97667070c54ef182b0f5858b034beac1b6f3089aa2d3188bb1e8929f4fa9b92961128581611d62565b60058081111561129857611297612160565b5b60ff16600260009054906101000a900460ff1660058111156112bd576112bc612160565b5b60ff1610611300576040517f08c379a00000000000000000000000000000000000000000000000000000000081526004016112f79061293e565b60405180910390fd5b6001600260009054906101000a900460ff16600581111561132457611323612160565b5b61132e919061296b565b60ff16600581111561134357611342612160565b5b600260006101000a81548160ff0219169083600581111561136757611366612160565b5b02179055507ea8b06dd72552dea96e97c9a96acf39a1908ada44765cefe367620485b2c7e1600260009054906101000a900460ff166040516113a991906121d7565b60405180910390a150565b600a602052816000526040600020602052806000526040600020600091509150505481565b60038060000154908060010154908060020154908060030154905084565b600080600084815260200190815260200160002060000160008373ffffffffffffffffffffffffffffffffffffffff1673ffffffffffffffffffffffffffffffffffffffff16815260200190815260200160002060009054906101000a900460ff16905092915050565b6008818154811061147157600080fd5b906000526020600020016000915054906101000a900473ffffffffffffffffffffffffffffffffffffffff1681565b6000801b81565b7f97667070c54ef182b0f5858b034beac1b6f3089aa2d3188bb1e8929f4fa9b9296114d181611d62565b60038060058111156114e6576114e5612160565b5b600260009054906101000a900460ff16600581111561150857611507612160565b5b14611548576040517f08c379a000000000000000000000000000000000000000000000000000000000815260040161153f9061275a565b60405180910390fd5b60005b8484905081101561189057600085858381811061156b5761156a6129a0565b5b90506020020160208101906115809190612133565b9050600760008273ffffffffffffffffffffffffffffffffffffffff1673ffffffffffffffffffffffffffffffffffffffff16815260200190815260200160002060000160149054906101000a900460ff16611611576040517f08c379a000000000000000000000000000000000000000000000000000000000815260040161160890612a1b565b60405180910390fd5b6000600760008373ffffffffffffffffffffffffffffffffffffffff1673ffffffffffffffffffffffffffffffffffffffff16815260200190815260200160002060000160146101000a81548160ff0219169083151502179055506000600960008373ffffffffffffffffffffffffffffffffffffffff1673ffffffffffffffffffffffffffffffffffffffff168152602001908152602001600020549050600060016008805490506116c491906126da565b90506000600882815481106116dc576116db6129a0565b5b9060005260206000200160009054906101000a900473ffffffffffffffffffffffffffffffffffffffff1690508183146117b2578060088481548110611725576117246129a0565b5b9060005260206000200160006101000a81548173ffffffffffffffffffffffffffffffffffffffff021916908373ffffffffffffffffffffffffffffffffffffffff16021790555082600960008373ffffffffffffffffffffffffffffffffffffffff1673ffffffffffffffffffffffffffffffffffffffff168152602001908152602001600020819055505b60088054806117c4576117c3612a3b565b5b6001900381819060005260206000200160006101000a81549073ffffffffffffffffffffffffffffffffffffffff02191690559055600960008573ffffffffffffffffffffffffffffffffffffffff1673ffffffffffffffffffffffffffffffffffffffff168152602001908152602001600020600090558373ffffffffffffffffffffffffffffffffffffffff167f09ecde4cdec06d22983a3003ca002b5523be46f96242891b49b82068a24caf0860405160405180910390a250505050808060010191505061154b565b5050505050565b600c60009054906101000a900473ffffffffffffffffffffffffffffffffffffffff1673ffffffffffffffffffffffffffffffffffffffff163373ffffffffffffffffffffffffffffffffffffffff1614611927576040517f08c379a000000000000000000000000000000000000000000000000000000000815260040161191e90612ab6565b60405180910390fd5b600073ffffffffffffffffffffffffffffffffffffffff16600d60009054906101000a900473ffffffffffffffffffffffffffffffffffffffff1673ffffffffffffffffffffffffffffffffffffffff16146119b8576040517f08c379a00000000000000000000000000000000000000000000000000000000081526004016119af90612b22565b60405180910390fd5b80600d60006101000a81548173ffffffffffffffffffffffffffffffffffffffff021916908373ffffffffffffffffffffffffffffffffffffffff16021790555050565b7f97667070c54ef182b0f5858b034beac1b6f3089aa2d3188bb1e8929f4fa9b929611a2681611d62565b6005806005811115611a3b57611a3a612160565b5b600260009054906101000a900460ff166005811115611a5d57611a5c612160565b5b14611a9d576040517f08c379a0000000000000000000000000000000000000000000000000000000008152600401611a949061275a565b60405180910390fd5b60036000016000815480929190611ab390612b42565b919050555042600360010181905550603c42611acf9190612852565b600360020181905550600060038001819055506001600260006101000a81548160ff02191690836005811115611b0857611b07612160565b5b02179055507f33a701182892fd888ed152ca2ac23771a32e814469b7cd255965471e1af3a659600360000154604051611b4191906120ec565b60405180910390a17ea8b06dd72552dea96e97c9a96acf39a1908ada44765cefe367620485b2c7e16001604051611b7891906121d7565b60405180910390a15050565b611b8d82610aec565b611b9681611d62565b611ba08383611e6f565b50505050565b6000801b611bb381611d62565b3373ffffffffffffffffffffffffffffffffffffffff166108fc479081150290604051600060405180830381858888f19350505050158015611bf9573d6000803e3d6000fd5b5050565b60076020528060005260406000206000915090508060000160009054906101000a900473ffffffffffffffffffffffffffffffffffffffff16908060000160149054906101000a900460ff16908060010154908060020154908060030154905085565b7f97667070c54ef182b0f5858b034beac1b6f3089aa2d3188bb1e8929f4fa9b92981565b600b602052816000526040600020602052806000526040600020600091509150505481565b60007f01ffc9a7000000000000000000000000000000000000000000000000000000007bffffffffffffffffffffffffffffffffffffffffffffffffffffffff1916827bffffffffffffffffffffffffffffffffffffffffffffffffffffffff1916149050919050565b600260015403611d4f576040517f3ee5aeb500000000000000000000000000000000000000000000000000000000815260040160405180910390fd5b6002600181905550565b60018081905550565b611d7381611d6e611e67565b611f61565b50565b6000611d8283836113f7565b611e5c57600160008085815260200190815260200160002060000160008473ffffffffffffffffffffffffffffffffffffffff1673ffffffffffffffffffffffffffffffffffffffff16815260200190815260200160002060006101000a81548160ff021916908315150217905550611df9611e67565b73ffffffffffffffffffffffffffffffffffffffff168273ffffffffffffffffffffffffffffffffffffffff16847f2f8788117e7eff1d82e926ec794901d17c78024a50270940304540a733656f0d60405160405180910390a460019050611e61565b600090505b92915050565b600033905090565b6000611e7b83836113f7565b15611f5657600080600085815260200190815260200160002060000160008473ffffffffffffffffffffffffffffffffffffffff1673ffffffffffffffffffffffffffffffffffffffff16815260200190815260200160002060006101000a81548160ff021916908315150217905550611ef3611e67565b73ffffffffffffffffffffffffffffffffffffffff168273ffffffffffffffffffffffffffffffffffffffff16847ff6391f5c32d9c69d2a47ea670b442974b53935d1edc7fd64eb21e047a839171b60405160405180910390a460019050611f5b565b600090505b92915050565b611f6b82826113f7565b611fae5780826040517fe2517d3f000000000000000000000000000000000000000000000000000000008152600401611fa5929190612b8a565b60405180910390fd5b5050565b600080fd5b600080fd5b60007fffffffff0000000000000000000000000000000000000000000000000000000082169050919050565b611ff181611fbc565b8114611ffc57600080fd5b50565b60008135905061200e81611fe8565b92915050565b60006020828403121561202a57612029611fb2565b5b600061203884828501611fff565b91505092915050565b60008115159050919050565b61205681612041565b82525050565b6000602082019050612071600083018461204d565b92915050565b600073ffffffffffffffffffffffffffffffffffffffff82169050919050565b60006120a282612077565b9050919050565b6120b281612097565b82525050565b60006020820190506120cd60008301846120a9565b92915050565b6000819050919050565b6120e6816120d3565b82525050565b600060208201905061210160008301846120dd565b92915050565b61211081612097565b811461211b57600080fd5b50565b60008135905061212d81612107565b92915050565b60006020828403121561214957612148611fb2565b5b60006121578482850161211e565b91505092915050565b7f4e487b7100000000000000000000000000000000000000000000000000000000600052602160045260246000fd5b600681106121a05761219f612160565b5b50565b60008190506121b18261218f565b919050565b60006121c1826121a3565b9050919050565b6121d1816121b6565b82525050565b60006020820190506121ec60008301846121c8565b92915050565b6000819050919050565b612205816121f2565b811461221057600080fd5b50565b600081359050612222816121fc565b92915050565b60006020828403121561223e5761223d611fb2565b5b600061224c84828501612213565b91505092915050565b61225e816121f2565b82525050565b60006020820190506122796000830184612255565b92915050565b6000806040838503121561229657612295611fb2565b5b60006122a485828601612213565b92505060206122b58582860161211e565b9150509250929050565b600081519050919050565b600082825260208201905092915050565b6000819050602082019050919050565b6122f481612097565b82525050565b600061230683836122eb565b60208301905092915050565b6000602082019050919050565b600061232a826122bf565b61233481856122ca565b935061233f836122db565b8060005b8381101561237057815161235788826122fa565b975061236283612312565b925050600181019050612343565b5085935050505092915050565b60006020820190508181036000830152612397818461231f565b905092915050565b6123a8816120d3565b81146123b357600080fd5b50565b6000813590506123c58161239f565b92915050565b600080604083850312156123e2576123e1611fb2565b5b60006123f08582860161211e565b9250506020612401858286016123b6565b9150509250929050565b6000806040838503121561242257612421611fb2565b5b60006124308582860161211e565b92505060206124418582860161211e565b9150509250929050565b600060808201905061246060008301876120dd565b61246d60208301866120dd565b61247a60408301856120dd565b61248760608301846120dd565b95945050505050565b6000602082840312156124a6576124a5611fb2565b5b60006124b4848285016123b6565b91505092915050565b600080fd5b600080fd5b600080fd5b60008083601f8401126124e2576124e16124bd565b5b8235905067ffffffffffffffff8111156124ff576124fe6124c2565b5b60208301915083602082028301111561251b5761251a6124c7565b5b9250929050565b6000806020838503121561253957612538611fb2565b5b600083013567ffffffffffffffff81111561255757612556611fb7565b5b612563858286016124cc565b92509250509250929050565b600060a08201905061258460008301886120a9565b612591602083018761204d565b61259e60408301866120dd565b6125ab60608301856120dd565b6125b860808301846120dd565b9695505050505050565b600082825260208201905092915050565b7f4f6e6c7920666163746f72792063616e20726567697374657220746f6b656e73600082015250565b60006126096020836125c2565b9150612614826125d3565b602082019050919050565b60006020820190508181036000830152612638816125fc565b9050919050565b7f546f6b656e20616c726561647920726567697374657265640000000000000000600082015250565b60006126756018836125c2565b91506126808261263f565b602082019050919050565b600060208201905081810360008301526126a481612668565b9050919050565b7f4e487b7100000000000000000000000000000000000000000000000000000000600052601160045260246000fd5b60006126e5826120d3565b91506126f0836120d3565b9250828203905081811115612708576127076126ab565b5b92915050565b7f496e76616c69642067616d652073746174650000000000000000000000000000600082015250565b60006127446012836125c2565b915061274f8261270e565b602082019050919050565b6000602082019050818103600083015261277381612737565b9050919050565b7f496e73756666696369656e74207374616b6520616d6f756e7400000000000000600082015250565b60006127b06019836125c2565b91506127bb8261277a565b602082019050919050565b600060208201905081810360008301526127df816127a3565b9050919050565b7f546f6b656e206e6f742061637469766500000000000000000000000000000000600082015250565b600061281c6010836125c2565b9150612827826127e6565b602082019050919050565b6000602082019050818103600083015261284b8161280f565b9050919050565b600061285d826120d3565b9150612868836120d3565b92508282019050808211156128805761287f6126ab565b5b92915050565b7f496e73756666696369656e74207374616b650000000000000000000000000000600082015250565b60006128bc6012836125c2565b91506128c782612886565b602082019050919050565b600060208201905081810360008301526128eb816128af565b9050919050565b7f47616d6520616c72656164792066696e69736865640000000000000000000000600082015250565b60006129286015836125c2565b9150612933826128f2565b602082019050919050565b600060208201905081810360008301526129578161291b565b9050919050565b600060ff82169050919050565b60006129768261295e565b91506129818361295e565b9250828201905060ff81111561299a576129996126ab565b5b92915050565b7f4e487b7100000000000000000000000000000000000000000000000000000000600052603260045260246000fd5b7f546f6b656e20616c726561647920656c696d696e617465640000000000000000600082015250565b6000612a056018836125c2565b9150612a10826129cf565b602082019050919050565b60006020820190508181036000830152612a34816129f8565b9050919050565b7f4e487b7100000000000000000000000000000000000000000000000000000000600052603160045260246000fd5b7f4f6e6c792063726561746f722063616e2073657420666163746f727900000000600082015250565b6000612aa0601c836125c2565b9150612aab82612a6a565b602082019050919050565b60006020820190508181036000830152612acf81612a93565b9050919050565b7f466163746f727920616c72656164792073657400000000000000000000000000600082015250565b6000612b0c6013836125c2565b9150612b1782612ad6565b602082019050919050565b60006020820190508181036000830152612b3b81612aff565b9050919050565b6000612b4d826120d3565b91507fffffffffffffffffffffffffffffffffffffffffffffffffffffffffffffffff8203612b7f57612b7e6126ab565b5b600182019050919050565b6000604082019050612b9f60008301856120a9565b612bac6020830184612255565b939250505056fea2646970667358221220c168bf116d16a46be9eed19648d1a77f4c4852b43094170d24c5114c3a7bb06f64736f6c634300081c0033",
  "linkReferences": {},
  "deployedLinkReferences": {}
}