{
  "_format": "hh-sol-artifact-1",
  "contractName": "MemeCoinFactory",
  "sourceName": "contracts/MemeCoinFactory.sol",
  "abi": [
    {
      "inputs": [
        {
          "internalType": "address",
          "name": "_gameContract",
          "type": "address"
        },
        {
          "internalType": "address",
          "name": "admin",
          "type": "address"
        }
      ],
      "stateMutability": "nonpayable",
      "type": "constructor"
    },
    {
      "inputs": [],
      "name": "AccessControlBadConfirmation",
      "type": "error"
    },
    {
      "inputs": [
        {
          "internalType": "address",
          "name": "account",
          "type": "address"
        },
        {
          "internalType": "bytes32",
          "name": "neededRole",
          "type": "bytes32"
        }
      ],
      "name": "AccessControlUnauthorizedAccount",
      "type": "error"
    },
    {
      "anonymous": false,
      "inputs": [
        {
          "indexed": true,
          "internalType": "bytes32",
          "name": "role",
          "type": "bytes32"
        },
        {
          "indexed": true,
          "internalType": "bytes32",
          "name": "previousAdminRole",
          "type": "bytes32"
        },
        {
          "indexed": true,
          "internalType": "bytes32",
          "name": "newAdminRole",
          "type": "bytes32"
        }
      ],
      "name": "RoleAdminChanged",
      "type": "event"
    },
    {
      "anonymous": false,
      "inputs": [
        {
          "indexed": true,
          "internalType": "bytes32",
          "name": "role",
          "type": "bytes32"
        },
        {
          "indexed": true,
          "internalType": "address",
          "name": "account",
          "type": "address"
        },
        {
          "indexed": true,
          "internalType": "address",
          "name": "sender",
          "type": "address"
        }
      ],
      "name": "RoleGranted",
      "type": "event"
    },
    {
      "anonymous": false,
      "inputs": [
        {
          "indexed": true,
          "internalType": "bytes32",
          "name": "role",
          "type": "bytes32"
        },
        {
          "indexed": true,
          "internalType": "address",
          "name": "account",
          "type": "address"
        },
        {
          "indexed": true,
          "internalType": "address",
          "name": "sender",
          "type": "address"
        }
      ],
      "name": "RoleRevoked",
      "type": "event"
    },
    {
      "anonymous": false,
      "inputs": [
        {
          "indexed": true,
          "internalType": "address",
          "name": "tokenAddress",
          "type": "address"
        },
        {
          "indexed": false,
          "internalType": "string",
          "name": "name",
          "type": "string"
        },
        {
          "indexed": false,
          "internalType": "string",
          "name": "symbol",
          "type": "string"
        },
        {
          "indexed": false,
          "internalType": "string",
          "name": "emoji",
          "type": "string"
        },
        {
          "indexed": false,
          "internalType": "string",
          "name": "description",
          "type": "string"
        }
      ],
      "name": "TokenCreated",
      "type": "event"
    },
    {
      "inputs": [],
      "name": "CREATOR_ROLE",
      "outputs": [
        {
          "internalType": "bytes32",
          "name": "",
          "type": "bytes32"
        }
      ],
      "stateMutability": "view",
      "type": "function"
    },
    {
      "inputs": [],
      "name": "DEFAULT_ADMIN_ROLE",
      "outputs": [
        {
          "internalType": "bytes32",
          "name": "",
          "type": "bytes32"
        }
      ],
      "stateMutability": "view",
      "type": "function"
    },
    {
      "inputs": [
        {
          "internalType": "string",
          "name": "name",
          "type": "string"
        },
        {
          "internalType": "string",
          "name": "symbol",
          "type": "string"
        },
        {
          "internalType": "string",
          "name": "emoji",
          "type": "string"
        },
        {
          "internalType": "string",
          "name": "description",
          "type": "string"
        }
      ],
      "name": "createToken",
      "outputs": [
        {
          "internalType": "address",
          "name": "",
          "type": "address"
        }
      ],
      "stateMutability": "nonpayable",
      "type": "function"
    },
    {
      "inputs": [],
      "name": "gameContract",
      "outputs": [
        {
          "internalType": "contract IBattleRoyale",
          "name": "",
          "type": "address"
        }
      ],
      "stateMutability": "view",
      "type": "function"
    },
    {
      "inputs": [
        {
          "internalType": "bytes32",
          "name": "role",
          "type": "bytes32"
        }
      ],
      "name": "getRoleAdmin",
      "outputs": [
        {
          "internalType": "bytes32",
          "name": "",
          "type": "bytes32"
        }
      ],
      "stateMutability": "view",
      "type": "function"
    },
    {
      "inputs": [
        {
          "internalType": "bytes32",
          "name": "role",
          "type": "bytes32"
        },
        {
          "internalType": "address",
          "name": "account",
          "type": "address"
        }
      ],
      "name": "grantRole",
      "outputs": [],
      "stateMutability": "nonpayable",
      "type": "function"
    },
    {
      "inputs": [
        {
          "internalType": "bytes32",
          "name": "role",
          "type": "bytes32"
        },
        {
          "internalType": "address",
          "name": "account",
          "type": "address"
        }
      ],
      "name": "hasRole",
      "outputs": [
        {
          "internalType": "bool",
          "name": "",
          "type": "bool"
        }
      ],
      "stateMutability": "view",
      "type": "function"
    },
    {
      "inputs": [
        {
          "internalType": "bytes32",
          "name": "role",
          "type": "bytes32"
        },
        {
          "internalType": "address",
          "name": "callerConfirmation",
          "type": "address"
        }
      ],
      "name": "renounceRole",
      "outputs": [],
      "stateMutability": "nonpayable",
      "type": "function"
    },
    {
      "inputs": [
        {
          "internalType": "bytes32",
          "name": "role",
          "type": "bytes32"
        },
        {
          "internalType": "address",
          "name": "account",
          "type": "address"
        }
      ],
      "name": "revokeRole",
      "outputs": [],
      "stateMutability": "nonpayable",
      "type": "function"
    },
    {
      "inputs": [
        {
          "internalType": "bytes4",
          "name": "interfaceId",
          "type": "bytes4"
        }
      ],
      "name": "supportsInterface",
      "outputs": [
        {
          "internalType": "bool",
          "name": "",
          "type": "bool"
        }
      ],
      "stateMutability": "view",
      "type": "function"
    }
  ],
  "bytecode": "0x60a060405234801561001057600080fd5b5060405161405238038061405283398181016040528101906100329190610284565b8173ffffffffffffffffffffffffffffffffffffffff1660808173ffffffffffffffffffffffffffffffffffffffff16815250506100796000801b826100b260201b60201c565b506100aa7f828634d95e775031b9ff576b159a8509d3053581a8c9c4d7d86899e0afcd882f826100b260201b60201c565b5050506102c4565b60006100c483836101af60201b60201c565b6101a457600160008085815260200190815260200160002060000160008473ffffffffffffffffffffffffffffffffffffffff1673ffffffffffffffffffffffffffffffffffffffff16815260200190815260200160002060006101000a81548160ff02191690831515021790555061014161021960201b60201c565b73ffffffffffffffffffffffffffffffffffffffff168273ffffffffffffffffffffffffffffffffffffffff16847f2f8788117e7eff1d82e926ec794901d17c78024a50270940304540a733656f0d60405160405180910390a4600190506101a9565b600090505b92915050565b600080600084815260200190815260200160002060000160008373ffffffffffffffffffffffffffffffffffffffff1673ffffffffffffffffffffffffffffffffffffffff16815260200190815260200160002060009054906101000a900460ff16905092915050565b600033905090565b600080fd5b600073ffffffffffffffffffffffffffffffffffffffff82169050919050565b600061025182610226565b9050919050565b61026181610246565b811461026c57600080fd5b50565b60008151905061027e81610258565b92915050565b6000806040838503121561029b5761029a610221565b5b60006102a98582860161026f565b92505060206102ba8582860161026f565b9150509250929050565b608051613d656102ed600039600081816103dc0152818161043a015261052c0152613d656000f3fe608060405234801561001057600080fd5b506004361061009e5760003560e01c806391d148541161006657806391d1485414610159578063a076965914610189578063a217fddf146101b9578063d3f33009146101d7578063d547741f146101f55761009e565b806301ffc9a7146100a3578063248a9ca3146100d35780632f2ff15d1461010357806336568abe1461011f5780638aeda25a1461013b575b600080fd5b6100bd60048036038101906100b891906108a3565b610211565b6040516100ca91906108eb565b60405180910390f35b6100ed60048036038101906100e8919061093c565b61028b565b6040516100fa9190610978565b60405180910390f35b61011d600480360381019061011891906109f1565b6102aa565b005b610139600480360381019061013491906109f1565b6102cc565b005b610143610347565b6040516101509190610978565b60405180910390f35b610173600480360381019061016e91906109f1565b61036b565b60405161018091906108eb565b60405180910390f35b6101a3600480360381019061019e9190610b77565b6103d5565b6040516101b09190610c5d565b60405180910390f35b6101c1610523565b6040516101ce9190610978565b60405180910390f35b6101df61052a565b6040516101ec9190610cd7565b60405180910390f35b61020f600480360381019061020a91906109f1565b61054e565b005b60007f7965db0b000000000000000000000000000000000000000000000000000000007bffffffffffffffffffffffffffffffffffffffffffffffffffffffff1916827bffffffffffffffffffffffffffffffffffffffffffffffffffffffff19161480610284575061028382610570565b5b9050919050565b6000806000838152602001908152602001600020600101549050919050565b6102b38261028b565b6102bc816105da565b6102c683836105ee565b50505050565b6102d46106df565b73ffffffffffffffffffffffffffffffffffffffff168173ffffffffffffffffffffffffffffffffffffffff1614610338576040517f6697b23200000000000000000000000000000000000000000000000000000000815260040160405180910390fd5b61034282826106e7565b505050565b7f828634d95e775031b9ff576b159a8509d3053581a8c9c4d7d86899e0afcd882f81565b600080600084815260200190815260200160002060000160008373ffffffffffffffffffffffffffffffffffffffff1673ffffffffffffffffffffffffffffffffffffffff16815260200190815260200160002060009054906101000a900460ff16905092915050565b60008085857f000000000000000000000000000000000000000000000000000000000000000033878760405161040a9061082a565b61041996959493929190610d71565b604051809103906000f080158015610435573d6000803e3d6000fd5b5090507f000000000000000000000000000000000000000000000000000000000000000073ffffffffffffffffffffffffffffffffffffffff166309824a80826040518263ffffffff1660e01b81526004016104919190610c5d565b600060405180830381600087803b1580156104ab57600080fd5b505af11580156104bf573d6000803e3d6000fd5b505050508073ffffffffffffffffffffffffffffffffffffffff167fd3ba2e8168a71946398d68daa48d40a21e891dba8390433d2d49a131e88ffe4e8787878760405161050f9493929190610dee565b60405180910390a280915050949350505050565b6000801b81565b7f000000000000000000000000000000000000000000000000000000000000000081565b6105578261028b565b610560816105da565b61056a83836106e7565b50505050565b60007f01ffc9a7000000000000000000000000000000000000000000000000000000007bffffffffffffffffffffffffffffffffffffffffffffffffffffffff1916827bffffffffffffffffffffffffffffffffffffffffffffffffffffffff1916149050919050565b6105eb816105e66106df565b6107d9565b50565b60006105fa838361036b565b6106d457600160008085815260200190815260200160002060000160008473ffffffffffffffffffffffffffffffffffffffff1673ffffffffffffffffffffffffffffffffffffffff16815260200190815260200160002060006101000a81548160ff0219169083151502179055506106716106df565b73ffffffffffffffffffffffffffffffffffffffff168273ffffffffffffffffffffffffffffffffffffffff16847f2f8788117e7eff1d82e926ec794901d17c78024a50270940304540a733656f0d60405160405180910390a4600190506106d9565b600090505b92915050565b600033905090565b60006106f3838361036b565b156107ce57600080600085815260200190815260200160002060000160008473ffffffffffffffffffffffffffffffffffffffff1673ffffffffffffffffffffffffffffffffffffffff16815260200190815260200160002060006101000a81548160ff02191690831515021790555061076b6106df565b73ffffffffffffffffffffffffffffffffffffffff168273ffffffffffffffffffffffffffffffffffffffff16847ff6391f5c32d9c69d2a47ea670b442974b53935d1edc7fd64eb21e047a839171b60405160405180910390a4600190506107d3565b600090505b92915050565b6107e3828261036b565b6108265780826040517fe2517d3f00000000000000000000000000000000000000000000000000000000815260040161081d929190610e4f565b60405180910390fd5b5050565b612eb780610e7983390190565b6000604051905090565b600080fd5b600080fd5b60007fffffffff0000000000000000000000000000000000000000000000000000000082169050919050565b6108808161084b565b811461088b57600080fd5b50565b60008135905061089d81610877565b92915050565b6000602082840312156108b9576108b8610841565b5b60006108c78482850161088e565b91505092915050565b60008115159050919050565b6108e5816108d0565b82525050565b600060208201905061090060008301846108dc565b92915050565b6000819050919050565b61091981610906565b811461092457600080fd5b50565b60008135905061093681610910565b92915050565b60006020828403121561095257610951610841565b5b600061096084828501610927565b91505092915050565b61097281610906565b82525050565b600060208201905061098d6000830184610969565b92915050565b600073ffffffffffffffffffffffffffffffffffffffff82169050919050565b60006109be82610993565b9050919050565b6109ce816109b3565b81146109d957600080fd5b50565b6000813590506109eb816109c5565b92915050565b60008060408385031215610a0857610a07610841565b5b6000610a1685828601610927565b9250506020610a27858286016109dc565b9150509250929050565b600080fd5b600080fd5b6000601f19601f8301169050919050565b7f4e487b7100000000000000000000000000000000000000000000000000000000600052604160045260246000fd5b610a8482610a3b565b810181811067ffffffffffffffff82111715610aa357610aa2610a4c565b5b80604052505050565b6000610ab6610837565b9050610ac28282610a7b565b919050565b600067ffffffffffffffff821115610ae257610ae1610a4c565b5b610aeb82610a3b565b9050602081019050919050565b82818337600083830152505050565b6000610b1a610b1584610ac7565b610aac565b905082815260208101848484011115610b3657610b35610a36565b5b610b41848285610af8565b509392505050565b600082601f830112610b5e57610b5d610a31565b5b8135610b6e848260208601610b07565b91505092915050565b60008060008060808587031215610b9157610b90610841565b5b600085013567ffffffffffffffff811115610baf57610bae610846565b5b610bbb87828801610b49565b945050602085013567ffffffffffffffff811115610bdc57610bdb610846565b5b610be887828801610b49565b935050604085013567ffffffffffffffff811115610c0957610c08610846565b5b610c1587828801610b49565b925050606085013567ffffffffffffffff811115610c3657610c35610846565b5b610c4287828801610b49565b91505092959194509250565b610c57816109b3565b82525050565b6000602082019050610c726000830184610c4e565b92915050565b6000819050919050565b6000610c9d610c98610c9384610993565b610c78565b610993565b9050919050565b6000610caf82610c82565b9050919050565b6000610cc182610ca4565b9050919050565b610cd181610cb6565b82525050565b6000602082019050610cec6000830184610cc8565b92915050565b600081519050919050565b600082825260208201905092915050565b60005b83811015610d2c578082015181840152602081019050610d11565b60008484015250505050565b6000610d4382610cf2565b610d4d8185610cfd565b9350610d5d818560208601610d0e565b610d6681610a3b565b840191505092915050565b600060c0820190508181036000830152610d8b8189610d38565b90508181036020830152610d9f8188610d38565b9050610dae6040830187610c4e565b610dbb6060830186610c4e565b8181036080830152610dcd8185610d38565b905081810360a0830152610de18184610d38565b9050979650505050505050565b60006080820190508181036000830152610e088187610d38565b90508181036020830152610e1c8186610d38565b90508181036040830152610e308185610d38565b90508181036060830152610e448184610d38565b905095945050505050565b6000604082019050610e646000830185610c4e565b610e716020830184610969565b939250505056fe60a060405234801561001057600080fd5b50604051612eb7380380612eb78339818101604052810190610032919061043e565b85858160039081610043919061075c565b508060049081610053919061075c565b5050508373ffffffffffffffffffffffffffffffffffffffff1660808173ffffffffffffffffffffffffffffffffffffffff168152505061009d6000801b846100fa60201b60201c565b506100ce7f9f2df0fed2c77648de5860a4cc508cd0818c85b8b8a1ab4ceeef8d981c8956a6846100fa60201b60201c565b5081600690816100de919061075c565b5080600790816100ee919061075c565b5050505050505061082e565b600061010c83836101f860201b60201c565b6101ed5760016005600085815260200190815260200160002060000160008473ffffffffffffffffffffffffffffffffffffffff1673ffffffffffffffffffffffffffffffffffffffff16815260200190815260200160002060006101000a81548160ff02191690831515021790555061018a61026360201b60201c565b73ffffffffffffffffffffffffffffffffffffffff168273ffffffffffffffffffffffffffffffffffffffff16847f2f8788117e7eff1d82e926ec794901d17c78024a50270940304540a733656f0d60405160405180910390a4600190506101f2565b600090505b92915050565b60006005600084815260200190815260200160002060000160008373ffffffffffffffffffffffffffffffffffffffff1673ffffffffffffffffffffffffffffffffffffffff16815260200190815260200160002060009054906101000a900460ff16905092915050565b600033905090565b6000604051905090565b600080fd5b600080fd5b600080fd5b600080fd5b6000601f19601f8301169050919050565b7f4e487b7100000000000000000000000000000000000000000000000000000000600052604160045260246000fd5b6102d282610289565b810181811067ffffffffffffffff821117156102f1576102f061029a565b5b80604052505050565b600061030461026b565b905061031082826102c9565b919050565b600067ffffffffffffffff8211156103305761032f61029a565b5b61033982610289565b9050602081019050919050565b60005b83811015610364578082015181840152602081019050610349565b60008484015250505050565b600061038361037e84610315565b6102fa565b90508281526020810184848401111561039f5761039e610284565b5b6103aa848285610346565b509392505050565b600082601f8301126103c7576103c661027f565b5b81516103d7848260208601610370565b91505092915050565b600073ffffffffffffffffffffffffffffffffffffffff82169050919050565b600061040b826103e0565b9050919050565b61041b81610400565b811461042657600080fd5b50565b60008151905061043881610412565b92915050565b60008060008060008060c0878903121561045b5761045a610275565b5b600087015167ffffffffffffffff8111156104795761047861027a565b5b61048589828a016103b2565b965050602087015167ffffffffffffffff8111156104a6576104a561027a565b5b6104b289828a016103b2565b95505060406104c389828a01610429565b94505060606104d489828a01610429565b935050608087015167ffffffffffffffff8111156104f5576104f461027a565b5b61050189828a016103b2565b92505060a087015167ffffffffffffffff8111156105225761052161027a565b5b61052e89828a016103b2565b9150509295509295509295565b600081519050919050565b7f4e487b7100000000000000000000000000000000000000000000000000000000600052602260045260246000fd5b6000600282049050600182168061058d57607f821691505b6020821081036105a05761059f610546565b5b50919050565b60008190508160005260206000209050919050565b60006020601f8301049050919050565b600082821b905092915050565b6000600883026106087fffffffffffffffffffffffffffffffffffffffffffffffffffffffffffffffff826105cb565b61061286836105cb565b95508019841693508086168417925050509392505050565b6000819050919050565b6000819050919050565b600061065961065461064f8461062a565b610634565b61062a565b9050919050565b6000819050919050565b6106738361063e565b61068761067f82610660565b8484546105d8565b825550505050565b600090565b61069c61068f565b6106a781848461066a565b505050565b5b818110156106cb576106c0600082610694565b6001810190506106ad565b5050565b601f821115610710576106e1816105a6565b6106ea846105bb565b810160208510156106f9578190505b61070d610705856105bb565b8301826106ac565b50505b505050565b600082821c905092915050565b600061073360001984600802610715565b1980831691505092915050565b600061074c8383610722565b9150826002028217905092915050565b6107658261053b565b67ffffffffffffffff81111561077e5761077d61029a565b5b6107888254610575565b6107938282856106cf565b600060209050601f8311600181146107c657600084156107b4578287015190505b6107be8582610740565b865550610826565b601f1984166107d4866105a6565b60005b828110156107fc578489015182556001820191506020850194506020810190506107d7565b868310156108195784890151610815601f891682610722565b8355505b6001600288020188555050505b505050505050565b60805161263d61087a60003960008181610598015281816106fe0152818161098d01528181610ac301528181610bf901528181610d3f01528181610fe2015261120d015261263d6000f3fe608060405234801561001057600080fd5b506004361061014d5760003560e01c806370a08231116100c3578063a9059cbb1161007c578063a9059cbb146103b2578063aba11c46146103e2578063d3f3300914610400578063d53913931461041e578063d547741f1461043c578063dd62ed3e146104585761014d565b806370a08231146102dc5780637284e4161461030c57806379cc67901461032a57806391d148541461034657806395d89b4114610376578063a217fddf146103945761014d565b8063248a9ca311610115578063248a9ca31461021e5780632f2ff15d1461024e578063313ce5671461026a57806336568abe1461028857806340c10f19146102a457806342966c68146102c05761014d565b806301ffc9a71461015257806306fdde0314610182578063095ea7b3146101a057806318160ddd146101d057806323b872dd146101ee575b600080fd5b61016c60048036038101906101679190611d6d565b610488565b6040516101799190611db5565b60405180910390f35b61018a610502565b6040516101979190611e60565b60405180910390f35b6101ba60048036038101906101b59190611f16565b610594565b6040516101c79190611db5565b60405180910390f35b6101d86106f0565b6040516101e59190611f65565b60405180910390f35b61020860048036038101906102039190611f80565b6106fa565b6040516102159190611db5565b60405180910390f35b61023860048036038101906102339190612009565b61089b565b6040516102459190612045565b60405180910390f35b61026860048036038101906102639190612060565b6108bb565b005b6102726108dd565b60405161027f91906120bc565b60405180910390f35b6102a2600480360381019061029d9190612060565b6108e6565b005b6102be60048036038101906102b99190611f16565b610961565b005b6102da60048036038101906102d591906120d7565b610ac1565b005b6102f660048036038101906102f19190612104565b610bf5565b6040516103039190611f65565b60405180910390f35b610314610caf565b6040516103219190611e60565b60405180910390f35b610344600480360381019061033f9190611f16565b610d3d565b005b610360600480360381019061035b9190612060565b610eda565b60405161036d9190611db5565b60405180910390f35b61037e610f45565b60405161038b9190611e60565b60405180910390f35b61039c610fd7565b6040516103a99190612045565b60405180910390f35b6103cc60048036038101906103c79190611f16565b610fde565b6040516103d99190611db5565b60405180910390f35b6103ea61117d565b6040516103f79190611e60565b60405180910390f35b61040861120b565b6040516104159190612190565b60405180910390f35b61042661122f565b6040516104339190612045565b60405180910390f35b61045660048036038101906104519190612060565b611253565b005b610472600480360381019061046d91906121ab565b611275565b60405161047f9190611f65565b60405180910390f35b60007f7965db0b000000000000000000000000000000000000000000000000000000007bffffffffffffffffffffffffffffffffffffffffffffffffffffffff1916827bffffffffffffffffffffffffffffffffffffffffffffffffffffffff191614806104fb57506104fa826112fc565b5b9050919050565b6060600380546105119061221a565b80601f016020809104026020016040519081016040528092919081815260200182805461053d9061221a565b801561058a5780601f1061055f5761010080835404028352916020019161058a565b820191906000526020600020905b81548152906001019060200180831161056d57829003601f168201915b5050505050905090565b60007f000000000000000000000000000000000000000000000000000000000000000073ffffffffffffffffffffffffffffffffffffffff1663186e943f306040518263ffffffff1660e01b81526004016105ef919061225a565b602060405180830381865afa15801561060c573d6000803e3d6000fd5b505050506040513d601f19601f8201168201806040525081019061063091906122a1565b61066f576040517f08c379a00000000000000000000000000000000000000000000000000000000081526004016106669061231a565b60405180910390fd5b600073ffffffffffffffffffffffffffffffffffffffff168373ffffffffffffffffffffffffffffffffffffffff16036106de576040517f08c379a00000000000000000000000000000000000000000000000000000000081526004016106d590612386565b60405180910390fd5b6106e88383611366565b905092915050565b6000600254905090565b60007f000000000000000000000000000000000000000000000000000000000000000073ffffffffffffffffffffffffffffffffffffffff1663186e943f306040518263ffffffff1660e01b8152600401610755919061225a565b602060405180830381865afa158015610772573d6000803e3d6000fd5b505050506040513d601f19601f8201168201806040525081019061079691906122a1565b6107d5576040517f08c379a00000000000000000000000000000000000000000000000000000000081526004016107cc9061231a565b60405180910390fd5b600073ffffffffffffffffffffffffffffffffffffffff168373ffffffffffffffffffffffffffffffffffffffff1603610844576040517f08c379a000000000000000000000000000000000000000000000000000000000815260040161083b906123f2565b60405180910390fd5b60008211610887576040517f08c379a000000000000000000000000000000000000000000000000000000000815260040161087e9061245e565b60405180910390fd5b610892848484611389565b90509392505050565b600060056000838152602001908152602001600020600101549050919050565b6108c48261089b565b6108cd816113b8565b6108d783836113cc565b50505050565b60006012905090565b6108ee6114be565b73ffffffffffffffffffffffffffffffffffffffff168173ffffffffffffffffffffffffffffffffffffffff1614610952576040517f6697b23200000000000000000000000000000000000000000000000000000000815260040160405180910390fd5b61095c82826114c6565b505050565b7f9f2df0fed2c77648de5860a4cc508cd0818c85b8b8a1ab4ceeef8d981c8956a661098b816113b8565b7f000000000000000000000000000000000000000000000000000000000000000073ffffffffffffffffffffffffffffffffffffffff1663186e943f306040518263ffffffff1660e01b81526004016109e4919061225a565b602060405180830381865afa158015610a01573d6000803e3d6000fd5b505050506040513d601f19601f82011682018060405250810190610a2591906122a1565b610a64576040517f08c379a0000000000000000000000000000000000000000000000000000000008152600401610a5b9061231a565b60405180910390fd5b610a6e83836115b9565b8273ffffffffffffffffffffffffffffffffffffffff167f3f2c9d57c068687834f0de942a9babb9e5acab57d516d3480a3c16ee165a427383604051610ab49190611f65565b60405180910390a2505050565b7f000000000000000000000000000000000000000000000000000000000000000073ffffffffffffffffffffffffffffffffffffffff1663186e943f306040518263ffffffff1660e01b8152600401610b1a919061225a565b602060405180830381865afa158015610b37573d6000803e3d6000fd5b505050506040513d601f19601f82011682018060405250810190610b5b91906122a1565b610b9a576040517f08c379a0000000000000000000000000000000000000000000000000000000008152600401610b919061231a565b60405180910390fd5b610ba4338261163b565b3373ffffffffffffffffffffffffffffffffffffffff167ffd38818f5291bf0bb3a2a48aadc06ba8757865d1dabd804585338aab3009dcb682604051610bea9190611f65565b60405180910390a250565b60007f000000000000000000000000000000000000000000000000000000000000000073ffffffffffffffffffffffffffffffffffffffff1663186e943f306040518263ffffffff1660e01b8152600401610c50919061225a565b602060405180830381865afa158015610c6d573d6000803e3d6000fd5b505050506040513d601f19601f82011682018060405250810190610c9191906122a1565b610c9e5760009050610caa565b610ca7826116bd565b90505b919050565b60078054610cbc9061221a565b80601f0160208091040260200160405190810160405280929190818152602001828054610ce89061221a565b8015610d355780601f10610d0a57610100808354040283529160200191610d35565b820191906000526020600020905b815481529060010190602001808311610d1857829003601f168201915b505050505081565b7f000000000000000000000000000000000000000000000000000000000000000073ffffffffffffffffffffffffffffffffffffffff1663186e943f306040518263ffffffff1660e01b8152600401610d96919061225a565b602060405180830381865afa158015610db3573d6000803e3d6000fd5b505050506040513d601f19601f82011682018060405250810190610dd791906122a1565b610e16576040517f08c379a0000000000000000000000000000000000000000000000000000000008152600401610e0d9061231a565b60405180910390fd5b6000610e228333611275565b905081811015610e67576040517f08c379a0000000000000000000000000000000000000000000000000000000008152600401610e5e906124f0565b60405180910390fd5b610e7d83338484610e78919061253f565b611705565b610e87838361163b565b8273ffffffffffffffffffffffffffffffffffffffff167ffd38818f5291bf0bb3a2a48aadc06ba8757865d1dabd804585338aab3009dcb683604051610ecd9190611f65565b60405180910390a2505050565b60006005600084815260200190815260200160002060000160008373ffffffffffffffffffffffffffffffffffffffff1673ffffffffffffffffffffffffffffffffffffffff16815260200190815260200160002060009054906101000a900460ff16905092915050565b606060048054610f549061221a565b80601f0160208091040260200160405190810160405280929190818152602001828054610f809061221a565b8015610fcd5780601f10610fa257610100808354040283529160200191610fcd565b820191906000526020600020905b815481529060010190602001808311610fb057829003601f168201915b5050505050905090565b6000801b81565b60007f000000000000000000000000000000000000000000000000000000000000000073ffffffffffffffffffffffffffffffffffffffff1663186e943f306040518263ffffffff1660e01b8152600401611039919061225a565b602060405180830381865afa158015611056573d6000803e3d6000fd5b505050506040513d601f19601f8201168201806040525081019061107a91906122a1565b6110b9576040517f08c379a00000000000000000000000000000000000000000000000000000000081526004016110b09061231a565b60405180910390fd5b600073ffffffffffffffffffffffffffffffffffffffff168373ffffffffffffffffffffffffffffffffffffffff1603611128576040517f08c379a000000000000000000000000000000000000000000000000000000000815260040161111f906123f2565b60405180910390fd5b6000821161116b576040517f08c379a00000000000000000000000000000000000000000000000000000000081526004016111629061245e565b60405180910390fd5b6111758383611717565b905092915050565b6006805461118a9061221a565b80601f01602080910402602001604051908101604052809291908181526020018280546111b69061221a565b80156112035780601f106111d857610100808354040283529160200191611203565b820191906000526020600020905b8154815290600101906020018083116111e657829003601f168201915b505050505081565b7f000000000000000000000000000000000000000000000000000000000000000081565b7f9f2df0fed2c77648de5860a4cc508cd0818c85b8b8a1ab4ceeef8d981c8956a681565b61125c8261089b565b611265816113b8565b61126f83836114c6565b50505050565b6000600160008473ffffffffffffffffffffffffffffffffffffffff1673ffffffffffffffffffffffffffffffffffffffff16815260200190815260200160002060008373ffffffffffffffffffffffffffffffffffffffff1673ffffffffffffffffffffffffffffffffffffffff16815260200190815260200160002054905092915050565b60007f01ffc9a7000000000000000000000000000000000000000000000000000000007bffffffffffffffffffffffffffffffffffffffffffffffffffffffff1916827bffffffffffffffffffffffffffffffffffffffffffffffffffffffff1916149050919050565b6000806113716114be565b905061137e818585611705565b600191505092915050565b6000806113946114be565b90506113a185828561173a565b6113ac8585856117cf565b60019150509392505050565b6113c9816113c46114be565b6118c3565b50565b60006113d88383610eda565b6114b35760016005600085815260200190815260200160002060000160008473ffffffffffffffffffffffffffffffffffffffff1673ffffffffffffffffffffffffffffffffffffffff16815260200190815260200160002060006101000a81548160ff0219169083151502179055506114506114be565b73ffffffffffffffffffffffffffffffffffffffff168273ffffffffffffffffffffffffffffffffffffffff16847f2f8788117e7eff1d82e926ec794901d17c78024a50270940304540a733656f0d60405160405180910390a4600190506114b8565b600090505b92915050565b600033905090565b60006114d28383610eda565b156115ae5760006005600085815260200190815260200160002060000160008473ffffffffffffffffffffffffffffffffffffffff1673ffffffffffffffffffffffffffffffffffffffff16815260200190815260200160002060006101000a81548160ff02191690831515021790555061154b6114be565b73ffffffffffffffffffffffffffffffffffffffff168273ffffffffffffffffffffffffffffffffffffffff16847ff6391f5c32d9c69d2a47ea670b442974b53935d1edc7fd64eb21e047a839171b60405160405180910390a4600190506115b3565b600090505b92915050565b600073ffffffffffffffffffffffffffffffffffffffff168273ffffffffffffffffffffffffffffffffffffffff160361162b5760006040517fec442f05000000000000000000000000000000000000000000000000000000008152600401611622919061225a565b60405180910390fd5b61163760008383611914565b5050565b600073ffffffffffffffffffffffffffffffffffffffff168273ffffffffffffffffffffffffffffffffffffffff16036116ad5760006040517f96c6fd1e0000000000000000000000000000000000000000000000000000000081526004016116a4919061225a565b60405180910390fd5b6116b982600083611914565b5050565b60008060008373ffffffffffffffffffffffffffffffffffffffff1673ffffffffffffffffffffffffffffffffffffffff168152602001908152602001600020549050919050565b6117128383836001611b39565b505050565b6000806117226114be565b905061172f8185856117cf565b600191505092915050565b60006117468484611275565b90507fffffffffffffffffffffffffffffffffffffffffffffffffffffffffffffffff8110156117c957818110156117b9578281836040517ffb8f41b20000000000000000000000000000000000000000000000000000000081526004016117b093929190612573565b60405180910390fd5b6117c884848484036000611b39565b5b50505050565b600073ffffffffffffffffffffffffffffffffffffffff168373ffffffffffffffffffffffffffffffffffffffff16036118415760006040517f96c6fd1e000000000000000000000000000000000000000000000000000000008152600401611838919061225a565b60405180910390fd5b600073ffffffffffffffffffffffffffffffffffffffff168273ffffffffffffffffffffffffffffffffffffffff16036118b35760006040517fec442f050000000000000000000000000000000000000000000000000000000081526004016118aa919061225a565b60405180910390fd5b6118be838383611914565b505050565b6118cd8282610eda565b6119105780826040517fe2517d3f0000000000000000000000000000000000000000000000000000000081526004016119079291906125aa565b60405180910390fd5b5050565b600073ffffffffffffffffffffffffffffffffffffffff168373ffffffffffffffffffffffffffffffffffffffff160361196657806002600082825461195a91906125d3565b92505081905550611a39565b60008060008573ffffffffffffffffffffffffffffffffffffffff1673ffffffffffffffffffffffffffffffffffffffff168152602001908152602001600020549050818110156119f2578381836040517fe450d38c0000000000000000000000000000000000000000000000000000000081526004016119e993929190612573565b60405180910390fd5b8181036000808673ffffffffffffffffffffffffffffffffffffffff1673ffffffffffffffffffffffffffffffffffffffff16815260200190815260200160002081905550505b600073ffffffffffffffffffffffffffffffffffffffff168273ffffffffffffffffffffffffffffffffffffffff1603611a825780600260008282540392505081905550611acf565b806000808473ffffffffffffffffffffffffffffffffffffffff1673ffffffffffffffffffffffffffffffffffffffff168152602001908152602001600020600082825401925050819055505b8173ffffffffffffffffffffffffffffffffffffffff168373ffffffffffffffffffffffffffffffffffffffff167fddf252ad1be2c89b69c2b068fc378daa952ba7f163c4a11628f55a4df523b3ef83604051611b2c9190611f65565b60405180910390a3505050565b600073ffffffffffffffffffffffffffffffffffffffff168473ffffffffffffffffffffffffffffffffffffffff1603611bab5760006040517fe602df05000000000000000000000000000000000000000000000000000000008152600401611ba2919061225a565b60405180910390fd5b600073ffffffffffffffffffffffffffffffffffffffff168373ffffffffffffffffffffffffffffffffffffffff1603611c1d5760006040517f94280d62000000000000000000000000000000000000000000000000000000008152600401611c14919061225a565b60405180910390fd5b81600160008673ffffffffffffffffffffffffffffffffffffffff1673ffffffffffffffffffffffffffffffffffffffff16815260200190815260200160002060008573ffffffffffffffffffffffffffffffffffffffff1673ffffffffffffffffffffffffffffffffffffffff168152602001908152602001600020819055508015611d0a578273ffffffffffffffffffffffffffffffffffffffff168473ffffffffffffffffffffffffffffffffffffffff167f8c5be1e5ebec7d5bd14f71427d1e84f3dd0314c0f7b2291e5b200ac8c7c3b92584604051611d019190611f65565b60405180910390a35b50505050565b600080fd5b60007fffffffff0000000000000000000000000000000000000000000000000000000082169050919050565b611d4a81611d15565b8114611d5557600080fd5b50565b600081359050611d6781611d41565b92915050565b600060208284031215611d8357611d82611d10565b5b6000611d9184828501611d58565b91505092915050565b60008115159050919050565b611daf81611d9a565b82525050565b6000602082019050611dca6000830184611da6565b92915050565b600081519050919050565b600082825260208201905092915050565b60005b83811015611e0a578082015181840152602081019050611def565b60008484015250505050565b6000601f19601f8301169050919050565b6000611e3282611dd0565b611e3c8185611ddb565b9350611e4c818560208601611dec565b611e5581611e16565b840191505092915050565b60006020820190508181036000830152611e7a8184611e27565b905092915050565b600073ffffffffffffffffffffffffffffffffffffffff82169050919050565b6000611ead82611e82565b9050919050565b611ebd81611ea2565b8114611ec857600080fd5b50565b600081359050611eda81611eb4565b92915050565b6000819050919050565b611ef381611ee0565b8114611efe57600080fd5b50565b600081359050611f1081611eea565b92915050565b60008060408385031215611f2d57611f2c611d10565b5b6000611f3b85828601611ecb565b9250506020611f4c85828601611f01565b9150509250929050565b611f5f81611ee0565b82525050565b6000602082019050611f7a6000830184611f56565b92915050565b600080600060608486031215611f9957611f98611d10565b5b6000611fa786828701611ecb565b9350506020611fb886828701611ecb565b9250506040611fc986828701611f01565b9150509250925092565b6000819050919050565b611fe681611fd3565b8114611ff157600080fd5b50565b60008135905061200381611fdd565b92915050565b60006020828403121561201f5761201e611d10565b5b600061202d84828501611ff4565b91505092915050565b61203f81611fd3565b82525050565b600060208201905061205a6000830184612036565b92915050565b6000806040838503121561207757612076611d10565b5b600061208585828601611ff4565b925050602061209685828601611ecb565b9150509250929050565b600060ff82169050919050565b6120b6816120a0565b82525050565b60006020820190506120d160008301846120ad565b92915050565b6000602082840312156120ed576120ec611d10565b5b60006120fb84828501611f01565b91505092915050565b60006020828403121561211a57612119611d10565b5b600061212884828501611ecb565b91505092915050565b6000819050919050565b600061215661215161214c84611e82565b612131565b611e82565b9050919050565b60006121688261213b565b9050919050565b600061217a8261215d565b9050919050565b61218a8161216f565b82525050565b60006020820190506121a56000830184612181565b92915050565b600080604083850312156121c2576121c1611d10565b5b60006121d085828601611ecb565b92505060206121e185828601611ecb565b9150509250929050565b7f4e487b7100000000000000000000000000000000000000000000000000000000600052602260045260246000fd5b6000600282049050600182168061223257607f821691505b602082108103612245576122446121eb565b5b50919050565b61225481611ea2565b82525050565b600060208201905061226f600083018461224b565b92915050565b61227e81611d9a565b811461228957600080fd5b50565b60008151905061229b81612275565b92915050565b6000602082840312156122b7576122b6611d10565b5b60006122c58482850161228c565b91505092915050565b7f546f6b656e20656c696d696e6174656400000000000000000000000000000000600082015250565b6000612304601083611ddb565b915061230f826122ce565b602082019050919050565b60006020820190508181036000830152612333816122f7565b9050919050565b7f417070726f766520746f207a65726f2061646472657373000000000000000000600082015250565b6000612370601783611ddb565b915061237b8261233a565b602082019050919050565b6000602082019050818103600083015261239f81612363565b9050919050565b7f5472616e7366657220746f207a65726f20616464726573730000000000000000600082015250565b60006123dc601883611ddb565b91506123e7826123a6565b602082019050919050565b6000602082019050818103600083015261240b816123cf565b9050919050565b7f5472616e7366657220616d6f756e74206d75737420626520706f736974697665600082015250565b6000612448602083611ddb565b915061245382612412565b602082019050919050565b600060208201905081810360008301526124778161243b565b9050919050565b7f45524332303a206275726e20616d6f756e74206578636565647320616c6c6f7760008201527f616e636500000000000000000000000000000000000000000000000000000000602082015250565b60006124da602483611ddb565b91506124e58261247e565b604082019050919050565b60006020820190508181036000830152612509816124cd565b9050919050565b7f4e487b7100000000000000000000000000000000000000000000000000000000600052601160045260246000fd5b600061254a82611ee0565b915061255583611ee0565b925082820390508181111561256d5761256c612510565b5b92915050565b6000606082019050612588600083018661224b565b6125956020830185611f56565b6125a26040830184611f56565b949350505050565b60006040820190506125bf600083018561224b565b6125cc6020830184612036565b9392505050565b60006125de82611ee0565b91506125e983611ee0565b925082820190508082111561260157612600612510565b5b9291505056fea2646970667358221220e05204dd07e3e43a6a30233ee69523cf12c9a08ab985eb97e919a81ceaa8954464736f6c634300081c0033a2646970667358221220f4b5156721ea8ef81707e6d6bee5175883b51545969a8da159d29662892c160364736f6c634300081c0033",
  "linkReferences": {},
  "deployedLinkReferences": {}
}