{
  "_format": "hh-sol-artifact-1",
  "contractName": "BattleRoyale",
  "sourceName": "contracts/BattleRoyale.sol",
  "abi": [
    {
      "inputs": [
        {
          "internalType": "address",
          "name": "admin",
          "type": "address"
        }
      ],
      "stateMutability": "nonpayable",
      "type": "constructor"
    },
    {
      "inputs": [],
      "name": "AccessControlBadConfirmation",
      "type": "error"
    },
    {
      "inputs": [
        {
          "internalType": "address",
          "name": "account",
          "type": "address"
        },
        {
          "internalType": "bytes32",
          "name": "neededRole",
          "type": "bytes32"
        }
      ],
      "name": "AccessControlUnauthorizedAccount",
      "type": "error"
    },
    {
      "inputs": [],
      "name": "ReentrancyGuardReentrantCall",
      "type": "error"
    },
    {
      "anonymous": false,
      "inputs": [
        {
          "indexed": false,
          "internalType": "enum BattleRoyale.GameState",
          "name": "newState",
          "type": "uint8"
        }
      ],
      "name": "GameStateChanged",
      "type": "event"
    },
    {
      "anonymous": false,
      "inputs": [
        {
          "indexed": true,
          "internalType": "bytes32",
          "name": "role",
          "type": "bytes32"
        },
        {
          "indexed": true,
          "internalType": "bytes32",
          "name": "previousAdminRole",
          "type": "bytes32"
        },
        {
          "indexed": true,
          "internalType": "bytes32",
          "name": "newAdminRole",
          "type": "bytes32"
        }
      ],
      "name": "RoleAdminChanged",
      "type": "event"
    },
    {
      "anonymous": false,
      "inputs": [
        {
          "indexed": true,
          "internalType": "bytes32",
          "name": "role",
          "type": "bytes32"
        },
        {
          "indexed": true,
          "internalType": "address",
          "name": "account",
          "type": "address"
        },
        {
          "indexed": true,
          "internalType": "address",
          "name": "sender",
          "type": "address"
        }
      ],
      "name": "RoleGranted",
      "type": "event"
    },
    {
      "anonymous": false,
      "inputs": [
        {
          "indexed": true,
          "internalType": "bytes32",
          "name": "role",
          "type": "bytes32"
        },
        {
          "indexed": true,
          "internalType": "address",
          "name": "account",
          "type": "address"
        },
        {
          "indexed": true,
          "internalType": "address",
          "name": "sender",
          "type": "address"
        }
      ],
      "name": "RoleRevoked",
      "type": "event"
    },
    {
      "anonymous": false,
      "inputs": [
        {
          "indexed": false,
          "internalType": "uint256",
          "name": "roundNumber",
          "type": "uint256"
        }
      ],
      "name": "RoundStarted",
      "type": "event"
    },
    {
      "anonymous": false,
      "inputs": [
        {
          "indexed": true,
          "internalType": "address",
          "name": "user",
          "type": "address"
        },
        {
          "indexed": true,
          "internalType": "address",
          "name": "token",
          "type": "address"
        },
        {
          "indexed": false,
          "internalType": "uint256",
          "name": "amount",
          "type": "uint256"
        }
      ],
      "name": "StakePlaced",
      "type": "event"
    },
    {
      "anonymous": false,
      "inputs": [
        {
          "indexed": true,
          "internalType": "address",
          "name": "tokenAddress",
          "type": "address"
        }
      ],
      "name": "TokenEliminated",
      "type": "event"
    },
    {
      "anonymous": false,
      "inputs": [
        {
          "indexed": true,
          "internalType": "address",
          "name": "user",
          "type": "address"
        },
        {
          "indexed": true,
          "internalType": "address",
          "name": "token",
          "type": "address"
        },
        {
          "indexed": false,
          "internalType": "uint256",
          "name": "amount",
          "type": "uint256"
        }
      ],
      "name": "VoteCast",
      "type": "event"
    },
    {
      "inputs": [],
      "name": "DEFAULT_ADMIN_ROLE",
      "outputs": [
        {
          "internalType": "bytes32",
          "name": "",
          "type": "bytes32"
        }
      ],
      "stateMutability": "view",
      "type": "function"
    },
    {
      "inputs": [],
      "name": "MINIMUM_STAKE",
      "outputs": [
        {
          "internalType": "uint256",
          "name": "",
          "type": "uint256"
        }
      ],
      "stateMutability": "view",
      "type": "function"
    },
    {
      "inputs": [],
      "name": "OPERATOR_ROLE",
      "outputs": [
        {
          "internalType": "bytes32",
          "name": "",
          "type": "bytes32"
        }
      ],
      "stateMutability": "view",
      "type": "function"
    },
    {
      "inputs": [],
      "name": "ROUND_DURATION",
      "outputs": [
        {
          "internalType": "uint256",
          "name": "",
          "type": "uint256"
        }
      ],
      "stateMutability": "view",
      "type": "function"
    },
    {
      "inputs": [
        {
          "internalType": "uint256",
          "name": "",
          "type": "uint256"
        }
      ],
      "name": "activeTokens",
      "outputs": [
        {
          "internalType": "address",
          "name": "",
          "type": "address"
        }
      ],
      "stateMutability": "view",
      "type": "function"
    },
    {
      "inputs": [],
      "name": "advanceState",
      "outputs": [],
      "stateMutability": "nonpayable",
      "type": "function"
    },
    {
      "inputs": [],
      "name": "currentRound",
      "outputs": [
        {
          "internalType": "uint256",
          "name": "roundNumber",
          "type": "uint256"
        },
        {
          "internalType": "uint256",
          "name": "startTime",
          "type": "uint256"
        },
        {
          "internalType": "uint256",
          "name": "endTime",
          "type": "uint256"
        },
        {
          "internalType": "uint256",
          "name": "totalStaked",
          "type": "uint256"
        }
      ],
      "stateMutability": "view",
      "type": "function"
    },
    {
      "inputs": [],
      "name": "currentState",
      "outputs": [
        {
          "internalType": "enum BattleRoyale.GameState",
          "name": "",
          "type": "uint8"
        }
      ],
      "stateMutability": "view",
      "type": "function"
    },
    {
      "inputs": [
        {
          "internalType": "address[]",
          "name": "tokensToEliminate",
          "type": "address[]"
        }
      ],
      "name": "eliminateTokens",
      "outputs": [],
      "stateMutability": "nonpayable",
      "type": "function"
    },
    {
      "inputs": [],
      "name": "emergencyWithdraw",
      "outputs": [],
      "stateMutability": "nonpayable",
      "type": "function"
    },
    {
      "inputs": [],
      "name": "getActiveTokens",
      "outputs": [
        {
          "internalType": "address[]",
          "name": "",
          "type": "address[]"
        }
      ],
      "stateMutability": "view",
      "type": "function"
    },
    {
      "inputs": [
        {
          "internalType": "bytes32",
          "name": "role",
          "type": "bytes32"
        }
      ],
      "name": "getRoleAdmin",
      "outputs": [
        {
          "internalType": "bytes32",
          "name": "",
          "type": "bytes32"
        }
      ],
      "stateMutability": "view",
      "type": "function"
    },
    {
      "inputs": [
        {
          "internalType": "bytes32",
          "name": "role",
          "type": "bytes32"
        },
        {
          "internalType": "address",
          "name": "account",
          "type": "address"
        }
      ],
      "name": "grantRole",
      "outputs": [],
      "stateMutability": "nonpayable",
      "type": "function"
    },
    {
      "inputs": [
        {
          "internalType": "bytes32",
          "name": "role",
          "type": "bytes32"
        },
        {
          "internalType": "address",
          "name": "account",
          "type": "address"
        }
      ],
      "name": "hasRole",
      "outputs": [
        {
          "internalType": "bool",
          "name": "",
          "type": "bool"
        }
      ],
      "stateMutability": "view",
      "type": "function"
    },
    {
      "inputs": [
        {
          "internalType": "address",
          "name": "tokenAddr",
          "type": "address"
        }
      ],
      "name": "isTokenAlive",
      "outputs": [
        {
          "internalType": "bool",
          "name": "",
          "type": "bool"
        }
      ],
      "stateMutability": "view",
      "type": "function"
    },
    {
      "inputs": [
        {
          "internalType": "bytes32",
          "name": "role",
          "type": "bytes32"
        },
        {
          "internalType": "address",
          "name": "callerConfirmation",
          "type": "address"
        }
      ],
      "name": "renounceRole",
      "outputs": [],
      "stateMutability": "nonpayable",
      "type": "function"
    },
    {
      "inputs": [
        {
          "internalType": "bytes32",
          "name": "role",
          "type": "bytes32"
        },
        {
          "internalType": "address",
          "name": "account",
          "type": "address"
        }
      ],
      "name": "revokeRole",
      "outputs": [],
      "stateMutability": "nonpayable",
      "type": "function"
    },
    {
      "inputs": [
        {
          "internalType": "address",
          "name": "tokenAddress",
          "type": "address"
        }
      ],
      "name": "stake",
      "outputs": [],
      "stateMutability": "payable",
      "type": "function"
    },
    {
      "inputs": [],
      "name": "startNewRound",
      "outputs": [],
      "stateMutability": "nonpayable",
      "type": "function"
    },
    {
      "inputs": [
        {
          "internalType": "bytes4",
          "name": "interfaceId",
          "type": "bytes4"
        }
      ],
      "name": "supportsInterface",
      "outputs": [
        {
          "internalType": "bool",
          "name": "",
          "type": "bool"
        }
      ],
      "stateMutability": "view",
      "type": "function"
    },
    {
      "inputs": [
        {
          "internalType": "address",
          "name": "",
          "type": "address"
        }
      ],
      "name": "tokens",
      "outputs": [
        {
          "internalType": "address",
          "name": "addr",
          "type": "address"
        },
        {
          "internalType": "bool",
          "name": "isAlive",
          "type": "bool"
        },
        {
          "internalType": "uint256",
          "name": "votesReceived",
          "type": "uint256"
        },
        {
          "internalType": "uint256",
          "name": "totalStaked",
          "type": "uint256"
        },
        {
          "internalType": "uint256",
          "name": "price",
          "type": "uint256"
        }
      ],
      "stateMutability": "view",
      "type": "function"
    },
    {
      "inputs": [
        {
          "internalType": "address",
          "name": "",
          "type": "address"
        },
        {
          "internalType": "address",
          "name": "",
          "type": "address"
        }
      ],
      "name": "userStakes",
      "outputs": [
        {
          "internalType": "uint256",
          "name": "",
          "type": "uint256"
        }
      ],
      "stateMutability": "view",
      "type": "function"
    },
    {
      "inputs": [
        {
          "internalType": "address",
          "name": "",
          "type": "address"
        },
        {
          "internalType": "address",
          "name": "",
          "type": "address"
        }
      ],
      "name": "userVotes",
      "outputs": [
        {
          "internalType": "uint256",
          "name": "",
          "type": "uint256"
        }
      ],
      "stateMutability": "view",
      "type": "function"
    },
    {
      "inputs": [
        {
          "internalType": "address",
          "name": "tokenAddress",
          "type": "address"
        },
        {
          "internalType": "uint256",
          "name": "amount",
          "type": "uint256"
        }
      ],
      "name": "vote",
      "outputs": [],
      "stateMutability": "nonpayable",
      "type": "function"
    }
  ],
  "bytecode": "0x608060405234801561001057600080fd5b506040516126de3803806126de83398181016040528101906100329190610256565b6001808190555061004c6000801b8261008460201b60201c565b5061007d7f97667070c54ef182b0f5858b034beac1b6f3089aa2d3188bb1e8929f4fa9b9298261008460201b60201c565b5050610283565b6000610096838361018160201b60201c565b61017657600160008085815260200190815260200160002060000160008473ffffffffffffffffffffffffffffffffffffffff1673ffffffffffffffffffffffffffffffffffffffff16815260200190815260200160002060006101000a81548160ff0219169083151502179055506101136101eb60201b60201c565b73ffffffffffffffffffffffffffffffffffffffff168273ffffffffffffffffffffffffffffffffffffffff16847f2f8788117e7eff1d82e926ec794901d17c78024a50270940304540a733656f0d60405160405180910390a46001905061017b565b600090505b92915050565b600080600084815260200190815260200160002060000160008373ffffffffffffffffffffffffffffffffffffffff1673ffffffffffffffffffffffffffffffffffffffff16815260200190815260200160002060009054906101000a900460ff16905092915050565b600033905090565b600080fd5b600073ffffffffffffffffffffffffffffffffffffffff82169050919050565b6000610223826101f8565b9050919050565b61023381610218565b811461023e57600080fd5b50565b6000815190506102508161022a565b92915050565b60006020828403121561026c5761026b6101f3565b5b600061027a84828501610241565b91505092915050565b61244c806102926000396000f3fe60806040526004361061014b5760003560e01c8063862d2d7c116100b6578063bd85948c1161006f578063bd85948c1461049a578063d547741f146104b1578063db2e21bc146104da578063e4860339146104f1578063f5b541a614610532578063fb7ebb861461055d5761014b565b8063862d2d7c146103615780638a19c8bc1461039e57806391d14854146103cc5780639f224f3514610409578063a217fddf14610446578063a5c8c74b146104715761014b565b80632f2ff15d116101085780632f2ff15d1461027957806336568abe146102a25780635f5817e3146102cb5780635f74bbde146102f65780636641ea081461031f57806384ecdaf61461034a5761014b565b806301ffc9a71461015057806308dbbb031461018d5780630c3f6acf146101b8578063186e943f146101e3578063248a9ca314610220578063264762041461025d575b600080fd5b34801561015c57600080fd5b5061017760048036038101906101729190611a27565b61059a565b6040516101849190611a6f565b60405180910390f35b34801561019957600080fd5b506101a2610614565b6040516101af9190611aa3565b60405180910390f35b3480156101c457600080fd5b506101cd61061e565b6040516101da9190611b35565b60405180910390f35b3480156101ef57600080fd5b5061020a60048036038101906102059190611bae565b610631565b6040516102179190611a6f565b60405180910390f35b34801561022c57600080fd5b5061024760048036038101906102429190611c11565b61068a565b6040516102549190611c4d565b60405180910390f35b61027760048036038101906102729190611bae565b6106a9565b005b34801561028557600080fd5b506102a0600480360381019061029b9190611c68565b610978565b005b3480156102ae57600080fd5b506102c960048036038101906102c49190611c68565b61099a565b005b3480156102d757600080fd5b506102e0610a15565b6040516102ed9190611d66565b60405180910390f35b34801561030257600080fd5b5061031d60048036038101906103189190611db4565b610aa3565b005b34801561032b57600080fd5b50610334610dce565b6040516103419190611aa3565b60405180910390f35b34801561035657600080fd5b5061035f610dd3565b005b34801561036d57600080fd5b5061038860048036038101906103839190611df4565b610f2c565b6040516103959190611aa3565b60405180910390f35b3480156103aa57600080fd5b506103b3610f51565b6040516103c39493929190611e34565b60405180910390f35b3480156103d857600080fd5b506103f360048036038101906103ee9190611c68565b610f6f565b6040516104009190611a6f565b60405180910390f35b34801561041557600080fd5b50610430600480360381019061042b9190611e79565b610fd9565b60405161043d9190611eb5565b60405180910390f35b34801561045257600080fd5b5061045b611018565b6040516104689190611c4d565b60405180910390f35b34801561047d57600080fd5b5061049860048036038101906104939190611f35565b61101f565b005b3480156104a657600080fd5b506104af61140f565b005b3480156104bd57600080fd5b506104d860048036038101906104d39190611c68565b611597565b005b3480156104e657600080fd5b506104ef6115b9565b005b3480156104fd57600080fd5b5061051860048036038101906105139190611bae565b611610565b604051610529959493929190611f82565b60405180910390f35b34801561053e57600080fd5b50610547611673565b6040516105549190611c4d565b60405180910390f35b34801561056957600080fd5b50610584600480360381019061057f9190611df4565b611697565b6040516105919190611aa3565b60405180910390f35b60007f7965db0b000000000000000000000000000000000000000000000000000000007bffffffffffffffffffffffffffffffffffffffffffffffffffffffff1916827bffffffffffffffffffffffffffffffffffffffffffffffffffffffff1916148061060d575061060c826116bc565b5b9050919050565b655af3107a400081565b600260009054906101000a900460ff1681565b6000600760008373ffffffffffffffffffffffffffffffffffffffff1673ffffffffffffffffffffffffffffffffffffffff16815260200190815260200160002060000160149054906101000a900460ff169050919050565b6000806000838152602001908152602001600020600101549050919050565b6106b1611726565b60018060058111156106c6576106c5611abe565b5b600260009054906101000a900460ff1660058111156106e8576106e7611abe565b5b14610728576040517f08c379a000000000000000000000000000000000000000000000000000000000815260040161071f90612032565b60405180910390fd5b655af3107a4000341015610771576040517f08c379a00000000000000000000000000000000000000000000000000000000081526004016107689061209e565b60405180910390fd5b600760008373ffffffffffffffffffffffffffffffffffffffff1673ffffffffffffffffffffffffffffffffffffffff16815260200190815260200160002060000160149054906101000a900460ff16610800576040517f08c379a00000000000000000000000000000000000000000000000000000000081526004016107f79061210a565b60405180910390fd5b34600a60003373ffffffffffffffffffffffffffffffffffffffff1673ffffffffffffffffffffffffffffffffffffffff16815260200190815260200160002060008473ffffffffffffffffffffffffffffffffffffffff1673ffffffffffffffffffffffffffffffffffffffff168152602001908152602001600020600082825461088c9190612159565b9250508190555034600760008473ffffffffffffffffffffffffffffffffffffffff1673ffffffffffffffffffffffffffffffffffffffff16815260200190815260200160002060020160008282546108e59190612159565b92505081905550346003800160008282546109009190612159565b925050819055508173ffffffffffffffffffffffffffffffffffffffff163373ffffffffffffffffffffffffffffffffffffffff167fc6778db798f453f4b58c597af5604e294177401915982bd7c1c018648a3773d7346040516109649190611aa3565b60405180910390a35061097561176c565b50565b6109818261068a565b61098a81611775565b6109948383611789565b50505050565b6109a261187a565b73ffffffffffffffffffffffffffffffffffffffff168173ffffffffffffffffffffffffffffffffffffffff1614610a06576040517f6697b23200000000000000000000000000000000000000000000000000000000815260040160405180910390fd5b610a108282611882565b505050565b60606008805480602002602001604051908101604052809291908181526020018280548015610a9957602002820191906000526020600020905b8160009054906101000a900473ffffffffffffffffffffffffffffffffffffffff1673ffffffffffffffffffffffffffffffffffffffff1681526020019060010190808311610a4f575b5050505050905090565b610aab611726565b6002806005811115610ac057610abf611abe565b5b600260009054906101000a900460ff166005811115610ae257610ae1611abe565b5b14610b22576040517f08c379a0000000000000000000000000000000000000000000000000000000008152600401610b1990612032565b60405180910390fd5b600760008473ffffffffffffffffffffffffffffffffffffffff1673ffffffffffffffffffffffffffffffffffffffff16815260200190815260200160002060000160149054906101000a900460ff16610bb1576040517f08c379a0000000000000000000000000000000000000000000000000000000008152600401610ba89061210a565b60405180910390fd5b81600a60003373ffffffffffffffffffffffffffffffffffffffff1673ffffffffffffffffffffffffffffffffffffffff16815260200190815260200160002060008573ffffffffffffffffffffffffffffffffffffffff1673ffffffffffffffffffffffffffffffffffffffff168152602001908152602001600020541015610c70576040517f08c379a0000000000000000000000000000000000000000000000000000000008152600401610c67906121d9565b60405180910390fd5b81600b60003373ffffffffffffffffffffffffffffffffffffffff1673ffffffffffffffffffffffffffffffffffffffff16815260200190815260200160002060008573ffffffffffffffffffffffffffffffffffffffff1673ffffffffffffffffffffffffffffffffffffffff1681526020019081526020016000206000828254610cfc9190612159565b9250508190555081600760008573ffffffffffffffffffffffffffffffffffffffff1673ffffffffffffffffffffffffffffffffffffffff1681526020019081526020016000206001016000828254610d559190612159565b925050819055508273ffffffffffffffffffffffffffffffffffffffff163373ffffffffffffffffffffffffffffffffffffffff167f484413c33463e7d976e3ded2a85b0c31610d0906977df2cd9cbd6d12a6872a8484604051610db99190611aa3565b60405180910390a350610dca61176c565b5050565b603c81565b7f97667070c54ef182b0f5858b034beac1b6f3089aa2d3188bb1e8929f4fa9b929610dfd81611775565b600580811115610e1057610e0f611abe565b5b60ff16600260009054906101000a900460ff166005811115610e3557610e34611abe565b5b60ff1610610e78576040517f08c379a0000000000000000000000000000000000000000000000000000000008152600401610e6f90612245565b60405180910390fd5b6001600260009054906101000a900460ff166005811115610e9c57610e9b611abe565b5b610ea69190612272565b60ff166005811115610ebb57610eba611abe565b5b600260006101000a81548160ff02191690836005811115610edf57610ede611abe565b5b02179055507ea8b06dd72552dea96e97c9a96acf39a1908ada44765cefe367620485b2c7e1600260009054906101000a900460ff16604051610f219190611b35565b60405180910390a150565b600a602052816000526040600020602052806000526040600020600091509150505481565b60038060000154908060010154908060020154908060030154905084565b600080600084815260200190815260200160002060000160008373ffffffffffffffffffffffffffffffffffffffff1673ffffffffffffffffffffffffffffffffffffffff16815260200190815260200160002060009054906101000a900460ff16905092915050565b60088181548110610fe957600080fd5b906000526020600020016000915054906101000a900473ffffffffffffffffffffffffffffffffffffffff1681565b6000801b81565b7f97667070c54ef182b0f5858b034beac1b6f3089aa2d3188bb1e8929f4fa9b92961104981611775565b600380600581111561105e5761105d611abe565b5b600260009054906101000a900460ff1660058111156110805761107f611abe565b5b146110c0576040517f08c379a00000000000000000000000000000000000000000000000000000000081526004016110b790612032565b60405180910390fd5b60005b848490508110156114085760008585838181106110e3576110e26122a7565b5b90506020020160208101906110f89190611bae565b9050600760008273ffffffffffffffffffffffffffffffffffffffff1673ffffffffffffffffffffffffffffffffffffffff16815260200190815260200160002060000160149054906101000a900460ff16611189576040517f08c379a000000000000000000000000000000000000000000000000000000000815260040161118090612322565b60405180910390fd5b6000600760008373ffffffffffffffffffffffffffffffffffffffff1673ffffffffffffffffffffffffffffffffffffffff16815260200190815260200160002060000160146101000a81548160ff0219169083151502179055506000600960008373ffffffffffffffffffffffffffffffffffffffff1673ffffffffffffffffffffffffffffffffffffffff1681526020019081526020016000205490506000600160088054905061123c9190612342565b9050600060088281548110611254576112536122a7565b5b9060005260206000200160009054906101000a900473ffffffffffffffffffffffffffffffffffffffff16905081831461132a57806008848154811061129d5761129c6122a7565b5b9060005260206000200160006101000a81548173ffffffffffffffffffffffffffffffffffffffff021916908373ffffffffffffffffffffffffffffffffffffffff16021790555082600960008373ffffffffffffffffffffffffffffffffffffffff1673ffffffffffffffffffffffffffffffffffffffff168152602001908152602001600020819055505b600880548061133c5761133b612376565b5b6001900381819060005260206000200160006101000a81549073ffffffffffffffffffffffffffffffffffffffff02191690559055600960008573ffffffffffffffffffffffffffffffffffffffff1673ffffffffffffffffffffffffffffffffffffffff168152602001908152602001600020600090558373ffffffffffffffffffffffffffffffffffffffff167f09ecde4cdec06d22983a3003ca002b5523be46f96242891b49b82068a24caf0860405160405180910390a25050505080806001019150506110c3565b5050505050565b7f97667070c54ef182b0f5858b034beac1b6f3089aa2d3188bb1e8929f4fa9b92961143981611775565b600580600581111561144e5761144d611abe565b5b600260009054906101000a900460ff1660058111156114705761146f611abe565b5b146114b0576040517f08c379a00000000000000000000000000000000000000000000000000000000081526004016114a790612032565b60405180910390fd5b600360000160008154809291906114c6906123a5565b919050555042600360010181905550603c426114e29190612159565b600360020181905550600060038001819055506001600260006101000a81548160ff0219169083600581111561151b5761151a611abe565b5b02179055507f33a701182892fd888ed152ca2ac23771a32e814469b7cd255965471e1af3a6596003600001546040516115549190611aa3565b60405180910390a17ea8b06dd72552dea96e97c9a96acf39a1908ada44765cefe367620485b2c7e1600160405161158b9190611b35565b60405180910390a15050565b6115a08261068a565b6115a981611775565b6115b38383611882565b50505050565b6000801b6115c681611775565b3373ffffffffffffffffffffffffffffffffffffffff166108fc479081150290604051600060405180830381858888f1935050505015801561160c573d6000803e3d6000fd5b5050565b60076020528060005260406000206000915090508060000160009054906101000a900473ffffffffffffffffffffffffffffffffffffffff16908060000160149054906101000a900460ff16908060010154908060020154908060030154905085565b7f97667070c54ef182b0f5858b034beac1b6f3089aa2d3188bb1e8929f4fa9b92981565b600b602052816000526040600020602052806000526040600020600091509150505481565b60007f01ffc9a7000000000000000000000000000000000000000000000000000000007bffffffffffffffffffffffffffffffffffffffffffffffffffffffff1916827bffffffffffffffffffffffffffffffffffffffffffffffffffffffff1916149050919050565b600260015403611762576040517f3ee5aeb500000000000000000000000000000000000000000000000000000000815260040160405180910390fd5b6002600181905550565b60018081905550565b6117868161178161187a565b611974565b50565b60006117958383610f6f565b61186f57600160008085815260200190815260200160002060000160008473ffffffffffffffffffffffffffffffffffffffff1673ffffffffffffffffffffffffffffffffffffffff16815260200190815260200160002060006101000a81548160ff02191690831515021790555061180c61187a565b73ffffffffffffffffffffffffffffffffffffffff168273ffffffffffffffffffffffffffffffffffffffff16847f2f8788117e7eff1d82e926ec794901d17c78024a50270940304540a733656f0d60405160405180910390a460019050611874565b600090505b92915050565b600033905090565b600061188e8383610f6f565b1561196957600080600085815260200190815260200160002060000160008473ffffffffffffffffffffffffffffffffffffffff1673ffffffffffffffffffffffffffffffffffffffff16815260200190815260200160002060006101000a81548160ff02191690831515021790555061190661187a565b73ffffffffffffffffffffffffffffffffffffffff168273ffffffffffffffffffffffffffffffffffffffff16847ff6391f5c32d9c69d2a47ea670b442974b53935d1edc7fd64eb21e047a839171b60405160405180910390a46001905061196e565b600090505b92915050565b61197e8282610f6f565b6119c15780826040517fe2517d3f0000000000000000000000000000000000000000000000000000000081526004016119b89291906123ed565b60405180910390fd5b5050565b600080fd5b600080fd5b60007fffffffff0000000000000000000000000000000000000000000000000000000082169050919050565b611a04816119cf565b8114611a0f57600080fd5b50565b600081359050611a21816119fb565b92915050565b600060208284031215611a3d57611a3c6119c5565b5b6000611a4b84828501611a12565b91505092915050565b60008115159050919050565b611a6981611a54565b82525050565b6000602082019050611a846000830184611a60565b92915050565b6000819050919050565b611a9d81611a8a565b82525050565b6000602082019050611ab86000830184611a94565b92915050565b7f4e487b7100000000000000000000000000000000000000000000000000000000600052602160045260246000fd5b60068110611afe57611afd611abe565b5b50565b6000819050611b0f82611aed565b919050565b6000611b1f82611b01565b9050919050565b611b2f81611b14565b82525050565b6000602082019050611b4a6000830184611b26565b92915050565b600073ffffffffffffffffffffffffffffffffffffffff82169050919050565b6000611b7b82611b50565b9050919050565b611b8b81611b70565b8114611b9657600080fd5b50565b600081359050611ba881611b82565b92915050565b600060208284031215611bc457611bc36119c5565b5b6000611bd284828501611b99565b91505092915050565b6000819050919050565b611bee81611bdb565b8114611bf957600080fd5b50565b600081359050611c0b81611be5565b92915050565b600060208284031215611c2757611c266119c5565b5b6000611c3584828501611bfc565b91505092915050565b611c4781611bdb565b82525050565b6000602082019050611c626000830184611c3e565b92915050565b60008060408385031215611c7f57611c7e6119c5565b5b6000611c8d85828601611bfc565b9250506020611c9e85828601611b99565b9150509250929050565b600081519050919050565b600082825260208201905092915050565b6000819050602082019050919050565b611cdd81611b70565b82525050565b6000611cef8383611cd4565b60208301905092915050565b6000602082019050919050565b6000611d1382611ca8565b611d1d8185611cb3565b9350611d2883611cc4565b8060005b83811015611d59578151611d408882611ce3565b9750611d4b83611cfb565b925050600181019050611d2c565b5085935050505092915050565b60006020820190508181036000830152611d808184611d08565b905092915050565b611d9181611a8a565b8114611d9c57600080fd5b50565b600081359050611dae81611d88565b92915050565b60008060408385031215611dcb57611dca6119c5565b5b6000611dd985828601611b99565b9250506020611dea85828601611d9f565b9150509250929050565b60008060408385031215611e0b57611e0a6119c5565b5b6000611e1985828601611b99565b9250506020611e2a85828601611b99565b9150509250929050565b6000608082019050611e496000830187611a94565b611e566020830186611a94565b611e636040830185611a94565b611e706060830184611a94565b95945050505050565b600060208284031215611e8f57611e8e6119c5565b5b6000611e9d84828501611d9f565b91505092915050565b611eaf81611b70565b82525050565b6000602082019050611eca6000830184611ea6565b92915050565b600080fd5b600080fd5b600080fd5b60008083601f840112611ef557611ef4611ed0565b5b8235905067ffffffffffffffff811115611f1257611f11611ed5565b5b602083019150836020820283011115611f2e57611f2d611eda565b5b9250929050565b60008060208385031215611f4c57611f4b6119c5565b5b600083013567ffffffffffffffff811115611f6a57611f696119ca565b5b611f7685828601611edf565b92509250509250929050565b600060a082019050611f976000830188611ea6565b611fa46020830187611a60565b611fb16040830186611a94565b611fbe6060830185611a94565b611fcb6080830184611a94565b9695505050505050565b600082825260208201905092915050565b7f496e76616c69642067616d652073746174650000000000000000000000000000600082015250565b600061201c601283611fd5565b915061202782611fe6565b602082019050919050565b6000602082019050818103600083015261204b8161200f565b9050919050565b7f496e73756666696369656e74207374616b6520616d6f756e7400000000000000600082015250565b6000612088601983611fd5565b915061209382612052565b602082019050919050565b600060208201905081810360008301526120b78161207b565b9050919050565b7f546f6b656e206e6f742061637469766500000000000000000000000000000000600082015250565b60006120f4601083611fd5565b91506120ff826120be565b602082019050919050565b60006020820190508181036000830152612123816120e7565b9050919050565b7f4e487b7100000000000000000000000000000000000000000000000000000000600052601160045260246000fd5b600061216482611a8a565b915061216f83611a8a565b92508282019050808211156121875761218661212a565b5b92915050565b7f496e73756666696369656e74207374616b650000000000000000000000000000600082015250565b60006121c3601283611fd5565b91506121ce8261218d565b602082019050919050565b600060208201905081810360008301526121f2816121b6565b9050919050565b7f47616d6520616c72656164792066696e69736865640000000000000000000000600082015250565b600061222f601583611fd5565b915061223a826121f9565b602082019050919050565b6000602082019050818103600083015261225e81612222565b9050919050565b600060ff82169050919050565b600061227d82612265565b915061228883612265565b9250828201905060ff8111156122a1576122a061212a565b5b92915050565b7f4e487b7100000000000000000000000000000000000000000000000000000000600052603260045260246000fd5b7f546f6b656e20616c726561647920656c696d696e617465640000000000000000600082015250565b600061230c601883611fd5565b9150612317826122d6565b602082019050919050565b6000602082019050818103600083015261233b816122ff565b9050919050565b600061234d82611a8a565b915061235883611a8a565b92508282039050818111156123705761236f61212a565b5b92915050565b7f4e487b7100000000000000000000000000000000000000000000000000000000600052603160045260246000fd5b60006123b082611a8a565b91507fffffffffffffffffffffffffffffffffffffffffffffffffffffffffffffffff82036123e2576123e161212a565b5b600182019050919050565b60006040820190506124026000830185611ea6565b61240f6020830184611c3e565b939250505056fea26469706673582212206174b5a0ab0d6c60973653ca9733d8eaf43cb894e4af1f5bb9cc460cc8f0445f64736f6c634300081c0033",
  "linkReferences": {},
  "deployedLinkReferences": {}
}