{
  "_format": "hh-sol-artifact-1",
  "contractName": "BattleRoyale",
  "sourceName": "contracts/BattleRoyale.sol",
  "abi": [
    {
      "inputs": [
        {
          "internalType": "address",
          "name": "admin",
          "type": "address"
        }
      ],
      "stateMutability": "nonpayable",
      "type": "constructor"
    },
    {
      "inputs": [],
      "name": "AccessControlBadConfirmation",
      "type": "error"
    },
    {
      "inputs": [
        {
          "internalType": "address",
          "name": "account",
          "type": "address"
        },
        {
          "internalType": "bytes32",
          "name": "neededRole",
          "type": "bytes32"
        }
      ],
      "name": "AccessControlUnauthorizedAccount",
      "type": "error"
    },
    {
      "inputs": [],
      "name": "ReentrancyGuardReentrantCall",
      "type": "error"
    },
    {
      "anonymous": false,
      "inputs": [
        {
          "indexed": false,
          "internalType": "uint256",
          "name": "roundNumber",
          "type": "uint256"
        },
        {
          "indexed": false,
          "internalType": "string",
          "name": "rule",
          "type": "string"
        }
      ],
      "name": "EliminationRuleAdded",
      "type": "event"
    },
    {
      "anonymous": false,
      "inputs": [
        {
          "indexed": false,
          "internalType": "enum BattleRoyale.GameState",
          "name": "newState",
          "type": "uint8"
        }
      ],
      "name": "GameStateChanged",
      "type": "event"
    },
    {
      "anonymous": false,
      "inputs": [
        {
          "indexed": true,
          "internalType": "bytes32",
          "name": "role",
          "type": "bytes32"
        },
        {
          "indexed": true,
          "internalType": "bytes32",
          "name": "previousAdminRole",
          "type": "bytes32"
        },
        {
          "indexed": true,
          "internalType": "bytes32",
          "name": "newAdminRole",
          "type": "bytes32"
        }
      ],
      "name": "RoleAdminChanged",
      "type": "event"
    },
    {
      "anonymous": false,
      "inputs": [
        {
          "indexed": true,
          "internalType": "bytes32",
          "name": "role",
          "type": "bytes32"
        },
        {
          "indexed": true,
          "internalType": "address",
          "name": "account",
          "type": "address"
        },
        {
          "indexed": true,
          "internalType": "address",
          "name": "sender",
          "type": "address"
        }
      ],
      "name": "RoleGranted",
      "type": "event"
    },
    {
      "anonymous": false,
      "inputs": [
        {
          "indexed": true,
          "internalType": "bytes32",
          "name": "role",
          "type": "bytes32"
        },
        {
          "indexed": true,
          "internalType": "address",
          "name": "account",
          "type": "address"
        },
        {
          "indexed": true,
          "internalType": "address",
          "name": "sender",
          "type": "address"
        }
      ],
      "name": "RoleRevoked",
      "type": "event"
    },
    {
      "anonymous": false,
      "inputs": [
        {
          "indexed": false,
          "internalType": "uint256",
          "name": "roundNumber",
          "type": "uint256"
        }
      ],
      "name": "RoundStarted",
      "type": "event"
    },
    {
      "anonymous": false,
      "inputs": [
        {
          "indexed": true,
          "internalType": "address",
          "name": "user",
          "type": "address"
        },
        {
          "indexed": true,
          "internalType": "address",
          "name": "token",
          "type": "address"
        },
        {
          "indexed": false,
          "internalType": "uint256",
          "name": "amount",
          "type": "uint256"
        }
      ],
      "name": "StakePlaced",
      "type": "event"
    },
    {
      "anonymous": false,
      "inputs": [
        {
          "indexed": true,
          "internalType": "address",
          "name": "tokenAddress",
          "type": "address"
        }
      ],
      "name": "TokenEliminated",
      "type": "event"
    },
    {
      "anonymous": false,
      "inputs": [
        {
          "indexed": true,
          "internalType": "address",
          "name": "tokenAddress",
          "type": "address"
        }
      ],
      "name": "TokenRegistered",
      "type": "event"
    },
    {
      "anonymous": false,
      "inputs": [
        {
          "indexed": true,
          "internalType": "address",
          "name": "user",
          "type": "address"
        },
        {
          "indexed": true,
          "internalType": "address",
          "name": "token",
          "type": "address"
        },
        {
          "indexed": false,
          "internalType": "uint256",
          "name": "amount",
          "type": "uint256"
        }
      ],
      "name": "VoteCast",
      "type": "event"
    },
    {
      "inputs": [],
      "name": "DEFAULT_ADMIN_ROLE",
      "outputs": [
        {
          "internalType": "bytes32",
          "name": "",
          "type": "bytes32"
        }
      ],
      "stateMutability": "view",
      "type": "function"
    },
    {
      "inputs": [],
      "name": "MAX_ROUNDS",
      "outputs": [
        {
          "internalType": "uint256",
          "name": "",
          "type": "uint256"
        }
      ],
      "stateMutability": "view",
      "type": "function"
    },
    {
      "inputs": [],
      "name": "MINIMUM_STAKE",
      "outputs": [
        {
          "internalType": "uint256",
          "name": "",
          "type": "uint256"
        }
      ],
      "stateMutability": "view",
      "type": "function"
    },
    {
      "inputs": [],
      "name": "OPERATOR_ROLE",
      "outputs": [
        {
          "internalType": "bytes32",
          "name": "",
          "type": "bytes32"
        }
      ],
      "stateMutability": "view",
      "type": "function"
    },
    {
      "inputs": [],
      "name": "ROUND_DURATION",
      "outputs": [
        {
          "internalType": "uint256",
          "name": "",
          "type": "uint256"
        }
      ],
      "stateMutability": "view",
      "type": "function"
    },
    {
      "inputs": [
        {
          "internalType": "uint256",
          "name": "",
          "type": "uint256"
        }
      ],
      "name": "activeTokens",
      "outputs": [
        {
          "internalType": "address",
          "name": "",
          "type": "address"
        }
      ],
      "stateMutability": "view",
      "type": "function"
    },
    {
      "inputs": [
        {
          "internalType": "string",
          "name": "rule",
          "type": "string"
        }
      ],
      "name": "addEliminationRule",
      "outputs": [],
      "stateMutability": "nonpayable",
      "type": "function"
    },
    {
      "inputs": [],
      "name": "advanceState",
      "outputs": [],
      "stateMutability": "nonpayable",
      "type": "function"
    },
    {
      "inputs": [],
      "name": "creator",
      "outputs": [
        {
          "internalType": "address",
          "name": "",
          "type": "address"
        }
      ],
      "stateMutability": "view",
      "type": "function"
    },
    {
      "inputs": [],
      "name": "currentRound",
      "outputs": [
        {
          "internalType": "uint256",
          "name": "roundNumber",
          "type": "uint256"
        },
        {
          "internalType": "uint256",
          "name": "startTime",
          "type": "uint256"
        },
        {
          "internalType": "uint256",
          "name": "endTime",
          "type": "uint256"
        },
        {
          "internalType": "uint256",
          "name": "totalStaked",
          "type": "uint256"
        }
      ],
      "stateMutability": "view",
      "type": "function"
    },
    {
      "inputs": [],
      "name": "currentState",
      "outputs": [
        {
          "internalType": "enum BattleRoyale.GameState",
          "name": "",
          "type": "uint8"
        }
      ],
      "stateMutability": "view",
      "type": "function"
    },
    {
      "inputs": [
        {
          "internalType": "address[]",
          "name": "tokensToEliminate",
          "type": "address[]"
        }
      ],
      "name": "eliminateTokens",
      "outputs": [],
      "stateMutability": "nonpayable",
      "type": "function"
    },
    {
      "inputs": [
        {
          "internalType": "uint256",
          "name": "",
          "type": "uint256"
        }
      ],
      "name": "eliminationRules",
      "outputs": [
        {
          "internalType": "string",
          "name": "",
          "type": "string"
        }
      ],
      "stateMutability": "view",
      "type": "function"
    },
    {
      "inputs": [],
      "name": "emergencyWithdraw",
      "outputs": [],
      "stateMutability": "nonpayable",
      "type": "function"
    },
    {
      "inputs": [],
      "name": "getActiveTokens",
      "outputs": [
        {
          "internalType": "address[]",
          "name": "",
          "type": "address[]"
        }
      ],
      "stateMutability": "view",
      "type": "function"
    },
    {
      "inputs": [
        {
          "internalType": "bytes32",
          "name": "role",
          "type": "bytes32"
        }
      ],
      "name": "getRoleAdmin",
      "outputs": [
        {
          "internalType": "bytes32",
          "name": "",
          "type": "bytes32"
        }
      ],
      "stateMutability": "view",
      "type": "function"
    },
    {
      "inputs": [
        {
          "internalType": "bytes32",
          "name": "role",
          "type": "bytes32"
        },
        {
          "internalType": "address",
          "name": "account",
          "type": "address"
        }
      ],
      "name": "grantRole",
      "outputs": [],
      "stateMutability": "nonpayable",
      "type": "function"
    },
    {
      "inputs": [
        {
          "internalType": "bytes32",
          "name": "role",
          "type": "bytes32"
        },
        {
          "internalType": "address",
          "name": "account",
          "type": "address"
        }
      ],
      "name": "hasRole",
      "outputs": [
        {
          "internalType": "bool",
          "name": "",
          "type": "bool"
        }
      ],
      "stateMutability": "view",
      "type": "function"
    },
    {
      "inputs": [
        {
          "internalType": "address",
          "name": "tokenAddr",
          "type": "address"
        }
      ],
      "name": "isTokenAlive",
      "outputs": [
        {
          "internalType": "bool",
          "name": "",
          "type": "bool"
        }
      ],
      "stateMutability": "view",
      "type": "function"
    },
    {
      "inputs": [],
      "name": "memeCoinFactory",
      "outputs": [
        {
          "internalType": "address",
          "name": "",
          "type": "address"
        }
      ],
      "stateMutability": "view",
      "type": "function"
    },
    {
      "inputs": [
        {
          "internalType": "address",
          "name": "tokenAddress",
          "type": "address"
        }
      ],
      "name": "registerToken",
      "outputs": [],
      "stateMutability": "nonpayable",
      "type": "function"
    },
    {
      "inputs": [
        {
          "internalType": "bytes32",
          "name": "role",
          "type": "bytes32"
        },
        {
          "internalType": "address",
          "name": "callerConfirmation",
          "type": "address"
        }
      ],
      "name": "renounceRole",
      "outputs": [],
      "stateMutability": "nonpayable",
      "type": "function"
    },
    {
      "inputs": [
        {
          "internalType": "bytes32",
          "name": "role",
          "type": "bytes32"
        },
        {
          "internalType": "address",
          "name": "account",
          "type": "address"
        }
      ],
      "name": "revokeRole",
      "outputs": [],
      "stateMutability": "nonpayable",
      "type": "function"
    },
    {
      "inputs": [
        {
          "internalType": "uint256",
          "name": "",
          "type": "uint256"
        }
      ],
      "name": "roundToEliminationRule",
      "outputs": [
        {
          "internalType": "string",
          "name": "",
          "type": "string"
        }
      ],
      "stateMutability": "view",
      "type": "function"
    },
    {
      "inputs": [
        {
          "internalType": "address",
          "name": "_memeCoinFactory",
          "type": "address"
        }
      ],
      "name": "setMemeCoinFactory",
      "outputs": [],
      "stateMutability": "nonpayable",
      "type": "function"
    },
    {
      "inputs": [
        {
          "internalType": "address",
          "name": "tokenAddress",
          "type": "address"
        }
      ],
      "name": "stake",
      "outputs": [],
      "stateMutability": "payable",
      "type": "function"
    },
    {
      "inputs": [],
      "name": "startNewRound",
      "outputs": [],
      "stateMutability": "nonpayable",
      "type": "function"
    },
    {
      "inputs": [
        {
          "internalType": "bytes4",
          "name": "interfaceId",
          "type": "bytes4"
        }
      ],
      "name": "supportsInterface",
      "outputs": [
        {
          "internalType": "bool",
          "name": "",
          "type": "bool"
        }
      ],
      "stateMutability": "view",
      "type": "function"
    },
    {
      "inputs": [
        {
          "internalType": "address",
          "name": "",
          "type": "address"
        }
      ],
      "name": "tokens",
      "outputs": [
        {
          "internalType": "address",
          "name": "addr",
          "type": "address"
        },
        {
          "internalType": "bool",
          "name": "isAlive",
          "type": "bool"
        },
        {
          "internalType": "uint256",
          "name": "votesReceived",
          "type": "uint256"
        },
        {
          "internalType": "uint256",
          "name": "totalStaked",
          "type": "uint256"
        },
        {
          "internalType": "uint256",
          "name": "price",
          "type": "uint256"
        }
      ],
      "stateMutability": "view",
      "type": "function"
    },
    {
      "inputs": [
        {
          "internalType": "address",
          "name": "",
          "type": "address"
        },
        {
          "internalType": "address",
          "name": "",
          "type": "address"
        }
      ],
      "name": "userStakes",
      "outputs": [
        {
          "internalType": "uint256",
          "name": "",
          "type": "uint256"
        }
      ],
      "stateMutability": "view",
      "type": "function"
    },
    {
      "inputs": [
        {
          "internalType": "address",
          "name": "",
          "type": "address"
        },
        {
          "internalType": "address",
          "name": "",
          "type": "address"
        }
      ],
      "name": "userVotes",
      "outputs": [
        {
          "internalType": "uint256",
          "name": "",
          "type": "uint256"
        }
      ],
      "stateMutability": "view",
      "type": "function"
    },
    {
      "inputs": [
        {
          "internalType": "address",
          "name": "tokenAddress",
          "type": "address"
        },
        {
          "internalType": "uint256",
          "name": "amount",
          "type": "uint256"
        }
      ],
      "name": "vote",
      "outputs": [],
      "stateMutability": "nonpayable",
      "type": "function"
    }
  ],
  "bytecode": "0x608060405234801561001057600080fd5b50604051613987380380613987833981810160405281019061003291906102a2565b6001808190555061004c6000801b826100d060201b60201c565b5061007d7f97667070c54ef182b0f5858b034beac1b6f3089aa2d3188bb1e8929f4fa9b929826100d060201b60201c565b5033600e60006101000a81548173ffffffffffffffffffffffffffffffffffffffff021916908373ffffffffffffffffffffffffffffffffffffffff1602179055506000600360000181905550506102cf565b60006100e283836101cd60201b60201c565b6101c257600160008085815260200190815260200160002060000160008473ffffffffffffffffffffffffffffffffffffffff1673ffffffffffffffffffffffffffffffffffffffff16815260200190815260200160002060006101000a81548160ff02191690831515021790555061015f61023760201b60201c565b73ffffffffffffffffffffffffffffffffffffffff168273ffffffffffffffffffffffffffffffffffffffff16847f2f8788117e7eff1d82e926ec794901d17c78024a50270940304540a733656f0d60405160405180910390a4600190506101c7565b600090505b92915050565b600080600084815260200190815260200160002060000160008373ffffffffffffffffffffffffffffffffffffffff1673ffffffffffffffffffffffffffffffffffffffff16815260200190815260200160002060009054906101000a900460ff16905092915050565b600033905090565b600080fd5b600073ffffffffffffffffffffffffffffffffffffffff82169050919050565b600061026f82610244565b9050919050565b61027f81610264565b811461028a57600080fd5b50565b60008151905061029c81610276565b92915050565b6000602082840312156102b8576102b761023f565b5b60006102c68482850161028d565b91505092915050565b6136a9806102de6000396000f3fe6080604052600436106101e35760003560e01c806384ecdaf611610102578063bd1c6be911610095578063db2e21bc11610064578063db2e21bc146106e8578063e4860339146106ff578063f5b541a614610740578063fb7ebb861461076b576101e3565b8063bd1c6be914610642578063bd85948c1461067f578063d432dee014610696578063d547741f146106bf576101e3565b80639f224f35116100d15780639f224f3514610588578063a217fddf146105c5578063a5c8c74b146105f0578063b308458614610619576101e3565b806384ecdaf6146104c9578063862d2d7c146104e05780638a19c8bc1461051d57806391d148541461054b576101e3565b80632f2ff15d1161017a5780635f5817e3116101495780635f5817e31461040d5780635f74bbde146104385780636641ea08146104615780636ff1a09a1461048c576101e3565b80632f2ff15d1461036557806336568abe1461038e57806341d35582146103b757806342ee7cad146103e2576101e3565b80630c3f6acf116101b65780630c3f6acf146102a4578063186e943f146102cf578063248a9ca31461030c5780632647620414610349576101e3565b806301ffc9a7146101e857806302d05d3f1461022557806308dbbb031461025057806309824a801461027b575b600080fd5b3480156101f457600080fd5b5061020f600480360381019061020a91906124c8565b6107a8565b60405161021c9190612510565b60405180910390f35b34801561023157600080fd5b5061023a610822565b604051610247919061256c565b60405180910390f35b34801561025c57600080fd5b50610265610848565b60405161027291906125a0565b60405180910390f35b34801561028757600080fd5b506102a2600480360381019061029d91906125e7565b610852565b005b3480156102b057600080fd5b506102b9610b7a565b6040516102c6919061268b565b60405180910390f35b3480156102db57600080fd5b506102f660048036038101906102f191906125e7565b610b8d565b6040516103039190612510565b60405180910390f35b34801561031857600080fd5b50610333600480360381019061032e91906126dc565b610be6565b6040516103409190612718565b60405180910390f35b610363600480360381019061035e91906125e7565b610c05565b005b34801561037157600080fd5b5061038c60048036038101906103879190612733565b610ed4565b005b34801561039a57600080fd5b506103b560048036038101906103b09190612733565b610ef6565b005b3480156103c357600080fd5b506103cc610f71565b6040516103d991906125a0565b60405180910390f35b3480156103ee57600080fd5b506103f7610f76565b604051610404919061256c565b60405180910390f35b34801561041957600080fd5b50610422610f9c565b60405161042f9190612831565b60405180910390f35b34801561044457600080fd5b5061045f600480360381019061045a919061287f565b61102a565b005b34801561046d57600080fd5b50610476611355565b60405161048391906125a0565b60405180910390f35b34801561049857600080fd5b506104b360048036038101906104ae91906128bf565b61135a565b6040516104c0919061297c565b60405180910390f35b3480156104d557600080fd5b506104de6113fa565b005b3480156104ec57600080fd5b506105076004803603810190610502919061299e565b611553565b60405161051491906125a0565b60405180910390f35b34801561052957600080fd5b50610532611578565b60405161054294939291906129de565b60405180910390f35b34801561055757600080fd5b50610572600480360381019061056d9190612733565b611596565b60405161057f9190612510565b60405180910390f35b34801561059457600080fd5b506105af60048036038101906105aa91906128bf565b611600565b6040516105bc919061256c565b60405180910390f35b3480156105d157600080fd5b506105da61163f565b6040516105e79190612718565b60405180910390f35b3480156105fc57600080fd5b5061061760048036038101906106129190612a88565b611646565b005b34801561062557600080fd5b50610640600480360381019061063b91906125e7565b611a36565b005b34801561064e57600080fd5b50610669600480360381019061066491906128bf565b611b9b565b604051610676919061297c565b60405180910390f35b34801561068b57600080fd5b50610694611c47565b005b3480156106a257600080fd5b506106bd60048036038101906106b89190612b2b565b611e16565b005b3480156106cb57600080fd5b506106e660048036038101906106e19190612733565b611f96565b005b3480156106f457600080fd5b506106fd611fb8565b005b34801561070b57600080fd5b50610726600480360381019061072191906125e7565b61200f565b604051610737959493929190612b78565b60405180910390f35b34801561074c57600080fd5b50610755612072565b6040516107629190612718565b60405180910390f35b34801561077757600080fd5b50610792600480360381019061078d919061299e565b612096565b60405161079f91906125a0565b60405180910390f35b60007f7965db0b000000000000000000000000000000000000000000000000000000007bffffffffffffffffffffffffffffffffffffffffffffffffffffffff1916827bffffffffffffffffffffffffffffffffffffffffffffffffffffffff1916148061081b575061081a826120bb565b5b9050919050565b600e60009054906101000a900473ffffffffffffffffffffffffffffffffffffffff1681565b655af3107a400081565b600f60009054906101000a900473ffffffffffffffffffffffffffffffffffffffff1673ffffffffffffffffffffffffffffffffffffffff163373ffffffffffffffffffffffffffffffffffffffff16146108e2576040517f08c379a00000000000000000000000000000000000000000000000000000000081526004016108d990612c17565b60405180910390fd5b600760008273ffffffffffffffffffffffffffffffffffffffff1673ffffffffffffffffffffffffffffffffffffffff16815260200190815260200160002060000160149054906101000a900460ff1615610972576040517f08c379a000000000000000000000000000000000000000000000000000000000815260040161096990612c83565b60405180910390fd5b6040518060a001604052808273ffffffffffffffffffffffffffffffffffffffff16815260200160011515815260200160008152602001600081526020016000815250600760008373ffffffffffffffffffffffffffffffffffffffff1673ffffffffffffffffffffffffffffffffffffffff16815260200190815260200160002060008201518160000160006101000a81548173ffffffffffffffffffffffffffffffffffffffff021916908373ffffffffffffffffffffffffffffffffffffffff16021790555060208201518160000160146101000a81548160ff0219169083151502179055506040820151816001015560608201518160020155608082015181600301559050506008819080600181540180825580915050600190039060005260206000200160009091909190916101000a81548173ffffffffffffffffffffffffffffffffffffffff021916908373ffffffffffffffffffffffffffffffffffffffff1602179055506001600880549050610af19190612cd2565b600960008373ffffffffffffffffffffffffffffffffffffffff1673ffffffffffffffffffffffffffffffffffffffff168152602001908152602001600020819055508073ffffffffffffffffffffffffffffffffffffffff167f158412daecdc1456d01568828bcdb18464cc7f1ce0215ddbc3f3cfede9d1e63d60405160405180910390a250565b600260009054906101000a900460ff1681565b6000600760008373ffffffffffffffffffffffffffffffffffffffff1673ffffffffffffffffffffffffffffffffffffffff16815260200190815260200160002060000160149054906101000a900460ff169050919050565b6000806000838152602001908152602001600020600101549050919050565b610c0d612125565b6001806005811115610c2257610c21612614565b5b600260009054906101000a900460ff166005811115610c4457610c43612614565b5b14610c84576040517f08c379a0000000000000000000000000000000000000000000000000000000008152600401610c7b90612d52565b60405180910390fd5b655af3107a4000341015610ccd576040517f08c379a0000000000000000000000000000000000000000000000000000000008152600401610cc490612dbe565b60405180910390fd5b600760008373ffffffffffffffffffffffffffffffffffffffff1673ffffffffffffffffffffffffffffffffffffffff16815260200190815260200160002060000160149054906101000a900460ff16610d5c576040517f08c379a0000000000000000000000000000000000000000000000000000000008152600401610d5390612e2a565b60405180910390fd5b34600c60003373ffffffffffffffffffffffffffffffffffffffff1673ffffffffffffffffffffffffffffffffffffffff16815260200190815260200160002060008473ffffffffffffffffffffffffffffffffffffffff1673ffffffffffffffffffffffffffffffffffffffff1681526020019081526020016000206000828254610de89190612e4a565b9250508190555034600760008473ffffffffffffffffffffffffffffffffffffffff1673ffffffffffffffffffffffffffffffffffffffff1681526020019081526020016000206002016000828254610e419190612e4a565b9250508190555034600380016000828254610e5c9190612e4a565b925050819055508173ffffffffffffffffffffffffffffffffffffffff163373ffffffffffffffffffffffffffffffffffffffff167fc6778db798f453f4b58c597af5604e294177401915982bd7c1c018648a3773d734604051610ec091906125a0565b60405180910390a350610ed161216b565b50565b610edd82610be6565b610ee681612174565b610ef08383612188565b50505050565b610efe612279565b73ffffffffffffffffffffffffffffffffffffffff168173ffffffffffffffffffffffffffffffffffffffff1614610f62576040517f6697b23200000000000000000000000000000000000000000000000000000000815260040160405180910390fd5b610f6c8282612281565b505050565b600581565b600f60009054906101000a900473ffffffffffffffffffffffffffffffffffffffff1681565b6060600880548060200260200160405190810160405280929190818152602001828054801561102057602002820191906000526020600020905b8160009054906101000a900473ffffffffffffffffffffffffffffffffffffffff1673ffffffffffffffffffffffffffffffffffffffff1681526020019060010190808311610fd6575b5050505050905090565b611032612125565b600280600581111561104757611046612614565b5b600260009054906101000a900460ff16600581111561106957611068612614565b5b146110a9576040517f08c379a00000000000000000000000000000000000000000000000000000000081526004016110a090612d52565b60405180910390fd5b600760008473ffffffffffffffffffffffffffffffffffffffff1673ffffffffffffffffffffffffffffffffffffffff16815260200190815260200160002060000160149054906101000a900460ff16611138576040517f08c379a000000000000000000000000000000000000000000000000000000000815260040161112f90612e2a565b60405180910390fd5b81600c60003373ffffffffffffffffffffffffffffffffffffffff1673ffffffffffffffffffffffffffffffffffffffff16815260200190815260200160002060008573ffffffffffffffffffffffffffffffffffffffff1673ffffffffffffffffffffffffffffffffffffffff1681526020019081526020016000205410156111f7576040517f08c379a00000000000000000000000000000000000000000000000000000000081526004016111ee90612eca565b60405180910390fd5b81600d60003373ffffffffffffffffffffffffffffffffffffffff1673ffffffffffffffffffffffffffffffffffffffff16815260200190815260200160002060008573ffffffffffffffffffffffffffffffffffffffff1673ffffffffffffffffffffffffffffffffffffffff16815260200190815260200160002060008282546112839190612e4a565b9250508190555081600760008573ffffffffffffffffffffffffffffffffffffffff1673ffffffffffffffffffffffffffffffffffffffff16815260200190815260200160002060010160008282546112dc9190612e4a565b925050819055508273ffffffffffffffffffffffffffffffffffffffff163373ffffffffffffffffffffffffffffffffffffffff167f484413c33463e7d976e3ded2a85b0c31610d0906977df2cd9cbd6d12a6872a848460405161134091906125a0565b60405180910390a35061135161216b565b5050565b603c81565b600b602052806000526040600020600091509050805461137990612f19565b80601f01602080910402602001604051908101604052809291908181526020018280546113a590612f19565b80156113f25780601f106113c7576101008083540402835291602001916113f2565b820191906000526020600020905b8154815290600101906020018083116113d557829003601f168201915b505050505081565b7f97667070c54ef182b0f5858b034beac1b6f3089aa2d3188bb1e8929f4fa9b92961142481612174565b60058081111561143757611436612614565b5b60ff16600260009054906101000a900460ff16600581111561145c5761145b612614565b5b60ff161061149f576040517f08c379a000000000000000000000000000000000000000000000000000000000815260040161149690612f96565b60405180910390fd5b6001600260009054906101000a900460ff1660058111156114c3576114c2612614565b5b6114cd9190612fc3565b60ff1660058111156114e2576114e1612614565b5b600260006101000a81548160ff0219169083600581111561150657611505612614565b5b02179055507ea8b06dd72552dea96e97c9a96acf39a1908ada44765cefe367620485b2c7e1600260009054906101000a900460ff16604051611548919061268b565b60405180910390a150565b600c602052816000526040600020602052806000526040600020600091509150505481565b60038060000154908060010154908060020154908060030154905084565b600080600084815260200190815260200160002060000160008373ffffffffffffffffffffffffffffffffffffffff1673ffffffffffffffffffffffffffffffffffffffff16815260200190815260200160002060009054906101000a900460ff16905092915050565b6008818154811061161057600080fd5b906000526020600020016000915054906101000a900473ffffffffffffffffffffffffffffffffffffffff1681565b6000801b81565b7f97667070c54ef182b0f5858b034beac1b6f3089aa2d3188bb1e8929f4fa9b92961167081612174565b600380600581111561168557611684612614565b5b600260009054906101000a900460ff1660058111156116a7576116a6612614565b5b146116e7576040517f08c379a00000000000000000000000000000000000000000000000000000000081526004016116de90612d52565b60405180910390fd5b60005b84849050811015611a2f57600085858381811061170a57611709612ff8565b5b905060200201602081019061171f91906125e7565b9050600760008273ffffffffffffffffffffffffffffffffffffffff1673ffffffffffffffffffffffffffffffffffffffff16815260200190815260200160002060000160149054906101000a900460ff166117b0576040517f08c379a00000000000000000000000000000000000000000000000000000000081526004016117a790613073565b60405180910390fd5b6000600760008373ffffffffffffffffffffffffffffffffffffffff1673ffffffffffffffffffffffffffffffffffffffff16815260200190815260200160002060000160146101000a81548160ff0219169083151502179055506000600960008373ffffffffffffffffffffffffffffffffffffffff1673ffffffffffffffffffffffffffffffffffffffff168152602001908152602001600020549050600060016008805490506118639190612cd2565b905060006008828154811061187b5761187a612ff8565b5b9060005260206000200160009054906101000a900473ffffffffffffffffffffffffffffffffffffffff1690508183146119515780600884815481106118c4576118c3612ff8565b5b9060005260206000200160006101000a81548173ffffffffffffffffffffffffffffffffffffffff021916908373ffffffffffffffffffffffffffffffffffffffff16021790555082600960008373ffffffffffffffffffffffffffffffffffffffff1673ffffffffffffffffffffffffffffffffffffffff168152602001908152602001600020819055505b600880548061196357611962613093565b5b6001900381819060005260206000200160006101000a81549073ffffffffffffffffffffffffffffffffffffffff02191690559055600960008573ffffffffffffffffffffffffffffffffffffffff1673ffffffffffffffffffffffffffffffffffffffff168152602001908152602001600020600090558373ffffffffffffffffffffffffffffffffffffffff167f09ecde4cdec06d22983a3003ca002b5523be46f96242891b49b82068a24caf0860405160405180910390a25050505080806001019150506116ea565b5050505050565b600e60009054906101000a900473ffffffffffffffffffffffffffffffffffffffff1673ffffffffffffffffffffffffffffffffffffffff163373ffffffffffffffffffffffffffffffffffffffff1614611ac6576040517f08c379a0000000000000000000000000000000000000000000000000000000008152600401611abd9061310e565b60405180910390fd5b600073ffffffffffffffffffffffffffffffffffffffff16600f60009054906101000a900473ffffffffffffffffffffffffffffffffffffffff1673ffffffffffffffffffffffffffffffffffffffff1614611b57576040517f08c379a0000000000000000000000000000000000000000000000000000000008152600401611b4e9061317a565b60405180910390fd5b80600f60006101000a81548173ffffffffffffffffffffffffffffffffffffffff021916908373ffffffffffffffffffffffffffffffffffffffff16021790555050565b600a8181548110611bab57600080fd5b906000526020600020016000915090508054611bc690612f19565b80601f0160208091040260200160405190810160405280929190818152602001828054611bf290612f19565b8015611c3f5780601f10611c1457610100808354040283529160200191611c3f565b820191906000526020600020905b815481529060010190602001808311611c2257829003601f168201915b505050505081565b7f97667070c54ef182b0f5858b034beac1b6f3089aa2d3188bb1e8929f4fa9b929611c7181612174565b6005806005811115611c8657611c85612614565b5b600260009054906101000a900460ff166005811115611ca857611ca7612614565b5b14611ce8576040517f08c379a0000000000000000000000000000000000000000000000000000000008152600401611cdf90612d52565b60405180910390fd5b60056003600001541115611d31576040517f08c379a0000000000000000000000000000000000000000000000000000000008152600401611d28906131e6565b60405180910390fd5b600060036000018190555042600360010181905550603c42611d539190612e4a565b60036002018190555060006003800181905550600a6000611d7491906123c4565b6001600260006101000a81548160ff02191690836005811115611d9a57611d99612614565b5b02179055507f33a701182892fd888ed152ca2ac23771a32e814469b7cd255965471e1af3a659600360000154604051611dd391906125a0565b60405180910390a17ea8b06dd72552dea96e97c9a96acf39a1908ada44765cefe367620485b2c7e16001604051611e0a919061268b565b60405180910390a15050565b7f97667070c54ef182b0f5858b034beac1b6f3089aa2d3188bb1e8929f4fa9b929611e4081612174565b600560036000015410611e88576040517f08c379a0000000000000000000000000000000000000000000000000000000008152600401611e7f90613252565b60405180910390fd5b600160088054905011611ed0576040517f08c379a0000000000000000000000000000000000000000000000000000000008152600401611ec7906132be565b60405180910390fd5b8282600b600060036000015481526020019081526020016000209182611ef79291906134c4565b50600a838390918060018154018082558091505060019003906000526020600020016000909192909192909192909192509182611f359291906134c4565b507f3fd538b7997f0beaa75b9f390d3d425fdf6d4b8315724e434abf3bd9adb4690f6003600001548484604051611f6e939291906135d0565b60405180910390a160036000016000815480929190611f8c90613602565b9190505550505050565b611f9f82610be6565b611fa881612174565b611fb28383612281565b50505050565b6000801b611fc581612174565b3373ffffffffffffffffffffffffffffffffffffffff166108fc479081150290604051600060405180830381858888f1935050505015801561200b573d6000803e3d6000fd5b5050565b60076020528060005260406000206000915090508060000160009054906101000a900473ffffffffffffffffffffffffffffffffffffffff16908060000160149054906101000a900460ff16908060010154908060020154908060030154905085565b7f97667070c54ef182b0f5858b034beac1b6f3089aa2d3188bb1e8929f4fa9b92981565b600d602052816000526040600020602052806000526040600020600091509150505481565b60007f01ffc9a7000000000000000000000000000000000000000000000000000000007bffffffffffffffffffffffffffffffffffffffffffffffffffffffff1916827bffffffffffffffffffffffffffffffffffffffffffffffffffffffff1916149050919050565b600260015403612161576040517f3ee5aeb500000000000000000000000000000000000000000000000000000000815260040160405180910390fd5b6002600181905550565b60018081905550565b61218581612180612279565b612373565b50565b60006121948383611596565b61226e57600160008085815260200190815260200160002060000160008473ffffffffffffffffffffffffffffffffffffffff1673ffffffffffffffffffffffffffffffffffffffff16815260200190815260200160002060006101000a81548160ff02191690831515021790555061220b612279565b73ffffffffffffffffffffffffffffffffffffffff168273ffffffffffffffffffffffffffffffffffffffff16847f2f8788117e7eff1d82e926ec794901d17c78024a50270940304540a733656f0d60405160405180910390a460019050612273565b600090505b92915050565b600033905090565b600061228d8383611596565b1561236857600080600085815260200190815260200160002060000160008473ffffffffffffffffffffffffffffffffffffffff1673ffffffffffffffffffffffffffffffffffffffff16815260200190815260200160002060006101000a81548160ff021916908315150217905550612305612279565b73ffffffffffffffffffffffffffffffffffffffff168273ffffffffffffffffffffffffffffffffffffffff16847ff6391f5c32d9c69d2a47ea670b442974b53935d1edc7fd64eb21e047a839171b60405160405180910390a46001905061236d565b600090505b92915050565b61237d8282611596565b6123c05780826040517fe2517d3f0000000000000000000000000000000000000000000000000000000081526004016123b792919061364a565b60405180910390fd5b5050565b50805460008255906000526020600020908101906123e291906123e5565b50565b5b8082111561240557600081816123fc9190612409565b506001016123e6565b5090565b50805461241590612f19565b6000825580601f106124275750612446565b601f0160209004906000526020600020908101906124459190612449565b5b50565b5b8082111561246257600081600090555060010161244a565b5090565b600080fd5b600080fd5b60007fffffffff0000000000000000000000000000000000000000000000000000000082169050919050565b6124a581612470565b81146124b057600080fd5b50565b6000813590506124c28161249c565b92915050565b6000602082840312156124de576124dd612466565b5b60006124ec848285016124b3565b91505092915050565b60008115159050919050565b61250a816124f5565b82525050565b60006020820190506125256000830184612501565b92915050565b600073ffffffffffffffffffffffffffffffffffffffff82169050919050565b60006125568261252b565b9050919050565b6125668161254b565b82525050565b6000602082019050612581600083018461255d565b92915050565b6000819050919050565b61259a81612587565b82525050565b60006020820190506125b56000830184612591565b92915050565b6125c48161254b565b81146125cf57600080fd5b50565b6000813590506125e1816125bb565b92915050565b6000602082840312156125fd576125fc612466565b5b600061260b848285016125d2565b91505092915050565b7f4e487b7100000000000000000000000000000000000000000000000000000000600052602160045260246000fd5b6006811061265457612653612614565b5b50565b600081905061266582612643565b919050565b600061267582612657565b9050919050565b6126858161266a565b82525050565b60006020820190506126a0600083018461267c565b92915050565b6000819050919050565b6126b9816126a6565b81146126c457600080fd5b50565b6000813590506126d6816126b0565b92915050565b6000602082840312156126f2576126f1612466565b5b6000612700848285016126c7565b91505092915050565b612712816126a6565b82525050565b600060208201905061272d6000830184612709565b92915050565b6000806040838503121561274a57612749612466565b5b6000612758858286016126c7565b9250506020612769858286016125d2565b9150509250929050565b600081519050919050565b600082825260208201905092915050565b6000819050602082019050919050565b6127a88161254b565b82525050565b60006127ba838361279f565b60208301905092915050565b6000602082019050919050565b60006127de82612773565b6127e8818561277e565b93506127f38361278f565b8060005b8381101561282457815161280b88826127ae565b9750612816836127c6565b9250506001810190506127f7565b5085935050505092915050565b6000602082019050818103600083015261284b81846127d3565b905092915050565b61285c81612587565b811461286757600080fd5b50565b60008135905061287981612853565b92915050565b6000806040838503121561289657612895612466565b5b60006128a4858286016125d2565b92505060206128b58582860161286a565b9150509250929050565b6000602082840312156128d5576128d4612466565b5b60006128e38482850161286a565b91505092915050565b600081519050919050565b600082825260208201905092915050565b60005b8381101561292657808201518184015260208101905061290b565b60008484015250505050565b6000601f19601f8301169050919050565b600061294e826128ec565b61295881856128f7565b9350612968818560208601612908565b61297181612932565b840191505092915050565b600060208201905081810360008301526129968184612943565b905092915050565b600080604083850312156129b5576129b4612466565b5b60006129c3858286016125d2565b92505060206129d4858286016125d2565b9150509250929050565b60006080820190506129f36000830187612591565b612a006020830186612591565b612a0d6040830185612591565b612a1a6060830184612591565b95945050505050565b600080fd5b600080fd5b600080fd5b60008083601f840112612a4857612a47612a23565b5b8235905067ffffffffffffffff811115612a6557612a64612a28565b5b602083019150836020820283011115612a8157612a80612a2d565b5b9250929050565b60008060208385031215612a9f57612a9e612466565b5b600083013567ffffffffffffffff811115612abd57612abc61246b565b5b612ac985828601612a32565b92509250509250929050565b60008083601f840112612aeb57612aea612a23565b5b8235905067ffffffffffffffff811115612b0857612b07612a28565b5b602083019150836001820283011115612b2457612b23612a2d565b5b9250929050565b60008060208385031215612b4257612b41612466565b5b600083013567ffffffffffffffff811115612b6057612b5f61246b565b5b612b6c85828601612ad5565b92509250509250929050565b600060a082019050612b8d600083018861255d565b612b9a6020830187612501565b612ba76040830186612591565b612bb46060830185612591565b612bc16080830184612591565b9695505050505050565b7f4f6e6c7920666163746f72792063616e20726567697374657220746f6b656e73600082015250565b6000612c016020836128f7565b9150612c0c82612bcb565b602082019050919050565b60006020820190508181036000830152612c3081612bf4565b9050919050565b7f546f6b656e20616c726561647920726567697374657265640000000000000000600082015250565b6000612c6d6018836128f7565b9150612c7882612c37565b602082019050919050565b60006020820190508181036000830152612c9c81612c60565b9050919050565b7f4e487b7100000000000000000000000000000000000000000000000000000000600052601160045260246000fd5b6000612cdd82612587565b9150612ce883612587565b9250828203905081811115612d0057612cff612ca3565b5b92915050565b7f496e76616c69642067616d652073746174650000000000000000000000000000600082015250565b6000612d3c6012836128f7565b9150612d4782612d06565b602082019050919050565b60006020820190508181036000830152612d6b81612d2f565b9050919050565b7f496e73756666696369656e74207374616b6520616d6f756e7400000000000000600082015250565b6000612da86019836128f7565b9150612db382612d72565b602082019050919050565b60006020820190508181036000830152612dd781612d9b565b9050919050565b7f546f6b656e206e6f742061637469766500000000000000000000000000000000600082015250565b6000612e146010836128f7565b9150612e1f82612dde565b602082019050919050565b60006020820190508181036000830152612e4381612e07565b9050919050565b6000612e5582612587565b9150612e6083612587565b9250828201905080821115612e7857612e77612ca3565b5b92915050565b7f496e73756666696369656e74207374616b650000000000000000000000000000600082015250565b6000612eb46012836128f7565b9150612ebf82612e7e565b602082019050919050565b60006020820190508181036000830152612ee381612ea7565b9050919050565b7f4e487b7100000000000000000000000000000000000000000000000000000000600052602260045260246000fd5b60006002820490506001821680612f3157607f821691505b602082108103612f4457612f43612eea565b5b50919050565b7f47616d6520616c72656164792066696e69736865640000000000000000000000600082015250565b6000612f806015836128f7565b9150612f8b82612f4a565b602082019050919050565b60006020820190508181036000830152612faf81612f73565b9050919050565b600060ff82169050919050565b6000612fce82612fb6565b9150612fd983612fb6565b9250828201905060ff811115612ff257612ff1612ca3565b5b92915050565b7f4e487b7100000000000000000000000000000000000000000000000000000000600052603260045260246000fd5b7f546f6b656e20616c726561647920656c696d696e617465640000000000000000600082015250565b600061305d6018836128f7565b915061306882613027565b602082019050919050565b6000602082019050818103600083015261308c81613050565b9050919050565b7f4e487b7100000000000000000000000000000000000000000000000000000000600052603160045260246000fd5b7f4f6e6c792063726561746f722063616e2073657420666163746f727900000000600082015250565b60006130f8601c836128f7565b9150613103826130c2565b602082019050919050565b60006020820190508181036000830152613127816130eb565b9050919050565b7f466163746f727920616c72656164792073657400000000000000000000000000600082015250565b60006131646013836128f7565b915061316f8261312e565b602082019050919050565b6000602082019050818103600083015261319381613157565b9050919050565b7f43616e6e6f7420657863656564206d6178696d756d20726f756e647300000000600082015250565b60006131d0601c836128f7565b91506131db8261319a565b602082019050919050565b600060208201905081810360008301526131ff816131c3565b9050919050565b7f4d6178696d756d20726f756e6473207265616368656400000000000000000000600082015250565b600061323c6016836128f7565b915061324782613206565b602082019050919050565b6000602082019050818103600083015261326b8161322f565b9050919050565b7f4e6f7420656e6f7567682061637469766520746f6b656e730000000000000000600082015250565b60006132a86018836128f7565b91506132b382613272565b602082019050919050565b600060208201905081810360008301526132d78161329b565b9050919050565b600082905092915050565b7f4e487b7100000000000000000000000000000000000000000000000000000000600052604160045260246000fd5b60008190508160005260206000209050919050565b60006020601f8301049050919050565b600082821b905092915050565b60006008830261337a7fffffffffffffffffffffffffffffffffffffffffffffffffffffffffffffffff8261333d565b613384868361333d565b95508019841693508086168417925050509392505050565b6000819050919050565b60006133c16133bc6133b784612587565b61339c565b612587565b9050919050565b6000819050919050565b6133db836133a6565b6133ef6133e7826133c8565b84845461334a565b825550505050565b600090565b6134046133f7565b61340f8184846133d2565b505050565b5b81811015613433576134286000826133fc565b600181019050613415565b5050565b601f8211156134785761344981613318565b6134528461332d565b81016020851015613461578190505b61347561346d8561332d565b830182613414565b50505b505050565b600082821c905092915050565b600061349b6000198460080261347d565b1980831691505092915050565b60006134b4838361348a565b9150826002028217905092915050565b6134ce83836132de565b67ffffffffffffffff8111156134e7576134e66132e9565b5b6134f18254612f19565b6134fc828285613437565b6000601f83116001811461352b5760008415613519578287013590505b61352385826134a8565b86555061358b565b601f19841661353986613318565b60005b828110156135615784890135825560018201915060208501945060208101905061353c565b8683101561357e578489013561357a601f89168261348a565b8355505b6001600288020188555050505b50505050505050565b82818337600083830152505050565b60006135af83856128f7565b93506135bc838584613594565b6135c583612932565b840190509392505050565b60006040820190506135e56000830186612591565b81810360208301526135f88184866135a3565b9050949350505050565b600061360d82612587565b91507fffffffffffffffffffffffffffffffffffffffffffffffffffffffffffffffff820361363f5761363e612ca3565b5b600182019050919050565b600060408201905061365f600083018561255d565b61366c6020830184612709565b939250505056fea264697066735822122076ebbe77e64d1adecaa859ca147edf71f4a52d61bea41210ff12a6b5d763acd464736f6c634300081c0033",
  "linkReferences": {},
  "deployedLinkReferences": {}
}